{
  "address": "0x81D26FB4BbdEd3931F26F572cbC853946B2087De",
  "abi": [
    {
      "inputs": [
        {
          "internalType": "contract LimitOrderProtocol",
          "name": "_limitOrderProtocol",
          "type": "address"
        },
        {
          "internalType": "uint256",
          "name": "_fee",
          "type": "uint256"
        },
        {
          "internalType": "address",
          "name": "_feeRecipient",
          "type": "address"
        },
        {
          "internalType": "contract IOrderRewardDistributor",
          "name": "_rewardDistributor",
          "type": "address"
        }
      ],
      "stateMutability": "nonpayable",
      "type": "constructor"
    },
    {
      "anonymous": false,
      "inputs": [
        {
          "indexed": false,
          "internalType": "uint256",
          "name": "oldFee",
          "type": "uint256"
        },
        {
          "indexed": false,
          "internalType": "uint256",
          "name": "newFee",
          "type": "uint256"
        }
      ],
      "name": "FeeChanged",
      "type": "event"
    },
    {
      "anonymous": false,
      "inputs": [
        {
          "indexed": false,
          "internalType": "address",
          "name": "oldFeeRecipient",
          "type": "address"
        },
        {
          "indexed": false,
          "internalType": "address",
          "name": "newFeeRecipient",
          "type": "address"
        }
      ],
      "name": "FeeRecipientChanged",
      "type": "event"
    },
    {
      "anonymous": false,
      "inputs": [
        {
          "indexed": true,
          "internalType": "address",
          "name": "maker",
          "type": "address"
        },
        {
          "indexed": true,
          "internalType": "bytes32",
          "name": "orderHash",
          "type": "bytes32"
        },
        {
          "components": [
            {
              "internalType": "uint256",
              "name": "salt",
              "type": "uint256"
            },
            {
              "internalType": "address",
              "name": "makerAsset",
              "type": "address"
            },
            {
              "internalType": "address",
              "name": "takerAsset",
              "type": "address"
            },
            {
              "internalType": "address",
              "name": "maker",
              "type": "address"
            },
            {
              "internalType": "address",
              "name": "receiver",
              "type": "address"
            },
            {
              "internalType": "address",
              "name": "allowedSender",
              "type": "address"
            },
            {
              "internalType": "uint256",
              "name": "makingAmount",
              "type": "uint256"
            },
            {
              "internalType": "uint256",
              "name": "takingAmount",
              "type": "uint256"
            },
            {
              "internalType": "bytes",
              "name": "makerAssetData",
              "type": "bytes"
            },
            {
              "internalType": "bytes",
              "name": "takerAssetData",
              "type": "bytes"
            },
            {
              "internalType": "bytes",
              "name": "getMakerAmount",
              "type": "bytes"
            },
            {
              "internalType": "bytes",
              "name": "getTakerAmount",
              "type": "bytes"
            },
            {
              "internalType": "bytes",
              "name": "predicate",
              "type": "bytes"
            },
            {
              "internalType": "bytes",
              "name": "permit",
              "type": "bytes"
            },
            {
              "internalType": "bytes",
              "name": "interaction",
              "type": "bytes"
            }
          ],
          "indexed": false,
          "internalType": "struct OrderMixin.Order",
          "name": "order",
          "type": "tuple"
        },
        {
          "indexed": false,
          "internalType": "bytes",
          "name": "signature",
          "type": "bytes"
        }
      ],
      "name": "OrderBroadcasted",
      "type": "event"
    },
    {
      "anonymous": false,
      "inputs": [
        {
          "indexed": true,
          "internalType": "address",
          "name": "previousOwner",
          "type": "address"
        },
        {
          "indexed": true,
          "internalType": "address",
          "name": "newOwner",
          "type": "address"
        }
      ],
      "name": "OwnershipTransferred",
      "type": "event"
    },
    {
      "anonymous": false,
      "inputs": [
        {
          "indexed": false,
          "internalType": "address",
          "name": "oldRewardDistributor",
          "type": "address"
        },
        {
          "indexed": false,
          "internalType": "address",
          "name": "newRewardDistributor",
          "type": "address"
        }
      ],
      "name": "RewardDistributorChanged",
      "type": "event"
    },
    {
      "inputs": [],
      "name": "MAX_FEE",
      "outputs": [
        {
          "internalType": "uint256",
          "name": "",
          "type": "uint256"
        }
      ],
      "stateMutability": "view",
      "type": "function"
    },
    {
      "inputs": [],
      "name": "PCT_DENOMINATOR",
      "outputs": [
        {
          "internalType": "uint256",
          "name": "",
          "type": "uint256"
        }
      ],
      "stateMutability": "view",
      "type": "function"
    },
    {
      "inputs": [
        {
          "components": [
            {
              "internalType": "uint256",
              "name": "salt",
              "type": "uint256"
            },
            {
              "internalType": "address",
              "name": "makerAsset",
              "type": "address"
            },
            {
              "internalType": "address",
              "name": "takerAsset",
              "type": "address"
            },
            {
              "internalType": "address",
              "name": "maker",
              "type": "address"
            },
            {
              "internalType": "address",
              "name": "receiver",
              "type": "address"
            },
            {
              "internalType": "address",
              "name": "allowedSender",
              "type": "address"
            },
            {
              "internalType": "uint256",
              "name": "makingAmount",
              "type": "uint256"
            },
            {
              "internalType": "uint256",
              "name": "takingAmount",
              "type": "uint256"
            },
            {
              "internalType": "bytes",
              "name": "makerAssetData",
              "type": "bytes"
            },
            {
              "internalType": "bytes",
              "name": "takerAssetData",
              "type": "bytes"
            },
            {
              "internalType": "bytes",
              "name": "getMakerAmount",
              "type": "bytes"
            },
            {
              "internalType": "bytes",
              "name": "getTakerAmount",
              "type": "bytes"
            },
            {
              "internalType": "bytes",
              "name": "predicate",
              "type": "bytes"
            },
            {
              "internalType": "bytes",
              "name": "permit",
              "type": "bytes"
            },
            {
              "internalType": "bytes",
              "name": "interaction",
              "type": "bytes"
            }
          ],
          "internalType": "struct OrderMixin.Order",
          "name": "_order",
          "type": "tuple"
        },
        {
          "internalType": "bytes",
          "name": "_signature",
          "type": "bytes"
        }
      ],
      "name": "broadcastOrder",
      "outputs": [],
      "stateMutability": "nonpayable",
      "type": "function"
    },
    {
      "inputs": [
        {
          "internalType": "uint256",
          "name": "_fee",
          "type": "uint256"
        }
      ],
      "name": "changeFee",
      "outputs": [],
      "stateMutability": "nonpayable",
      "type": "function"
    },
    {
      "inputs": [
        {
          "internalType": "address",
          "name": "_feeRecipient",
          "type": "address"
        }
      ],
      "name": "changeFeeRecipient",
      "outputs": [],
      "stateMutability": "nonpayable",
      "type": "function"
    },
    {
      "inputs": [
        {
          "internalType": "contract IOrderRewardDistributor",
          "name": "_rewardDistributor",
          "type": "address"
        }
      ],
      "name": "changeRewardDistributor",
      "outputs": [],
      "stateMutability": "nonpayable",
      "type": "function"
    },
    {
      "inputs": [],
      "name": "fee",
      "outputs": [
        {
          "internalType": "uint256",
          "name": "",
          "type": "uint256"
        }
      ],
      "stateMutability": "view",
      "type": "function"
    },
    {
      "inputs": [],
      "name": "feeRecipient",
      "outputs": [
        {
          "internalType": "address",
          "name": "",
          "type": "address"
        }
      ],
      "stateMutability": "view",
      "type": "function"
    },
    {
      "inputs": [],
      "name": "limitOrderProtocol",
      "outputs": [
        {
          "internalType": "contract LimitOrderProtocol",
          "name": "",
          "type": "address"
        }
      ],
      "stateMutability": "view",
      "type": "function"
    },
    {
      "inputs": [],
      "name": "owner",
      "outputs": [
        {
          "internalType": "address",
          "name": "",
          "type": "address"
        }
      ],
      "stateMutability": "view",
      "type": "function"
    },
    {
      "inputs": [],
      "name": "renounceOwnership",
      "outputs": [],
      "stateMutability": "nonpayable",
      "type": "function"
    },
    {
      "inputs": [],
      "name": "rewardDistributor",
      "outputs": [
        {
          "internalType": "contract IOrderRewardDistributor",
          "name": "",
          "type": "address"
        }
      ],
      "stateMutability": "view",
      "type": "function"
    },
    {
      "inputs": [
        {
          "internalType": "address",
          "name": "newOwner",
          "type": "address"
        }
      ],
      "name": "transferOwnership",
      "outputs": [],
      "stateMutability": "nonpayable",
      "type": "function"
    }
  ],
  "transactionHash": "0xb8ed5f98450f3956eed94668fcc4522d101f03fa55aecfd6d1ccb89d780476bc",
  "args": [
    "0x8a9869c4ba45041A1b853b81fb3006739C98C5eb",
    500,
    "0x97A9681612482A22b7877afbF8430EDC76159Cae",
    "0xa4C9e63C4699dCA1Ba133669ebEaDCdeEf8B312F"
  ],
  "numDeployments": 3,
  "solcInputHash": "8abbba2b3dc6adbed1278136eee7fbaa",
  "bytecode": "0x60a06040523480156200001157600080fd5b5060405162001c7b38038062001c7b833981016040819052620000349162000145565b6001600160a01b0384166080526200004c33620000dc565b6103e8831115620000a35760405162461bcd60e51b815260206004820152601860248201527f554f423a204665652065786365656473204d41585f4645450000000000000000604482015260640160405180910390fd5b600192909255600280546001600160a01b039283166001600160a01b0319918216179091556003805492909316911617905550620001a1565b600080546001600160a01b038381166001600160a01b0319831681178455604051919092169283917f8be0079c531659141344cd1fd0a4f28419497f9722a3daafe3b4186f6b6457e09190a35050565b6001600160a01b03811681146200014257600080fd5b50565b600080600080608085870312156200015c57600080fd5b845162000169816200012c565b60208601516040870151919550935062000183816200012c565b606086015190925062000196816200012c565b939692955090935050565b608051611ab7620001c4600039600081816101890152610a040152611ab76000f3fe608060405234801561001057600080fd5b50600436106100df5760003560e01c80637f94dd331161008c578063acc2166a11610066578063acc2166a146101e1578063bc063e1a14610201578063ddca3f431461020a578063f2fde38b1461021357600080fd5b80637f94dd331461018457806380b1acf5146101ab5780638da5cb5b146101c357600080fd5b80636a1db1bf116100bd5780636a1db1bf14610156578063715018a6146101695780637bea11b81461017157600080fd5b806323604071146100e457806328f59f05146100f9578063469048401461010c575b600080fd5b6100f76100f236600461128b565b610226565b005b6100f761010736600461128b565b610347565b60025461012c9073ffffffffffffffffffffffffffffffffffffffff1681565b60405173ffffffffffffffffffffffffffffffffffffffff90911681526020015b60405180910390f35b6100f76101643660046112a8565b610463565b6100f7610591565b6100f761017f366004611407565b61061e565b61012c7f000000000000000000000000000000000000000000000000000000000000000081565b6101b5620f424081565b60405190815260200161014d565b60005473ffffffffffffffffffffffffffffffffffffffff1661012c565b60035461012c9073ffffffffffffffffffffffffffffffffffffffff1681565b6101b56103e881565b6101b560015481565b6100f761022136600461128b565b610765565b60005473ffffffffffffffffffffffffffffffffffffffff1633146102ac576040517f08c379a000000000000000000000000000000000000000000000000000000000815260206004820181905260248201527f4f776e61626c653a2063616c6c6572206973206e6f7420746865206f776e657260448201526064015b60405180910390fd5b6002546040805173ffffffffffffffffffffffffffffffffffffffff928316815291831660208301527f0bc21fe5c3ab742ff1d15b5c4477ffbacf1167e618228078fa625edebe7f331d910160405180910390a1600280547fffffffffffffffffffffffff00000000000000000000000000000000000000001673ffffffffffffffffffffffffffffffffffffffff92909216919091179055565b60005473ffffffffffffffffffffffffffffffffffffffff1633146103c8576040517f08c379a000000000000000000000000000000000000000000000000000000000815260206004820181905260248201527f4f776e61626c653a2063616c6c6572206973206e6f7420746865206f776e657260448201526064016102a3565b6003546040805173ffffffffffffffffffffffffffffffffffffffff928316815291831660208301527fb642e5c641fcfa1f163dfa64a1c1cb822e5bbf70fdbe0a92d6c25b398b104617910160405180910390a1600380547fffffffffffffffffffffffff00000000000000000000000000000000000000001673ffffffffffffffffffffffffffffffffffffffff92909216919091179055565b60005473ffffffffffffffffffffffffffffffffffffffff1633146104e4576040517f08c379a000000000000000000000000000000000000000000000000000000000815260206004820181905260248201527f4f776e61626c653a2063616c6c6572206973206e6f7420746865206f776e657260448201526064016102a3565b6103e8811115610550576040517f08c379a000000000000000000000000000000000000000000000000000000000815260206004820152601860248201527f554f423a204665652065786365656473204d41585f464545000000000000000060448201526064016102a3565b60015460408051918252602082018390527f5fc463da23c1b063e66f9e352006a7fbe8db7223c455dc429e881a2dfe2f94f1910160405180910390a1600155565b60005473ffffffffffffffffffffffffffffffffffffffff163314610612576040517f08c379a000000000000000000000000000000000000000000000000000000000815260206004820181905260248201527f4f776e61626c653a2063616c6c6572206973206e6f7420746865206f776e657260448201526064016102a3565b61061c6000610895565b565b60025473ffffffffffffffffffffffffffffffffffffffff161580159061064757506000600154115b15610755576000610674620f424061066e6001548760c0015161090a90919063ffffffff16565b9061091d565b905080156106aa5760025460208501516106aa9173ffffffffffffffffffffffffffffffffffffffff9182169133911684610929565b60035473ffffffffffffffffffffffffffffffffffffffff1615610753576003546040517f44e972cf00000000000000000000000000000000000000000000000000000000815273ffffffffffffffffffffffffffffffffffffffff909116906344e972cf90610720908790339060040161181f565b600060405180830381600087803b15801561073a57600080fd5b505af115801561074e573d6000803e3d6000fd5b505050505b505b6107608383836109c4565b505050565b60005473ffffffffffffffffffffffffffffffffffffffff1633146107e6576040517f08c379a000000000000000000000000000000000000000000000000000000000815260206004820181905260248201527f4f776e61626c653a2063616c6c6572206973206e6f7420746865206f776e657260448201526064016102a3565b73ffffffffffffffffffffffffffffffffffffffff8116610889576040517f08c379a000000000000000000000000000000000000000000000000000000000815260206004820152602660248201527f4f776e61626c653a206e6577206f776e657220697320746865207a65726f206160448201527f646472657373000000000000000000000000000000000000000000000000000060648201526084016102a3565b61089281610895565b50565b6000805473ffffffffffffffffffffffffffffffffffffffff8381167fffffffffffffffffffffffff0000000000000000000000000000000000000000831681178455604051919092169283917f8be0079c531659141344cd1fd0a4f28419497f9722a3daafe3b4186f6b6457e09190a35050565b60006109168284611886565b9392505050565b600061091682846118c3565b6040805173ffffffffffffffffffffffffffffffffffffffff85811660248301528416604482015260648082018490528251808303909101815260849091019091526020810180517bffffffffffffffffffffffffffffffffffffffffffffffffffffffff167f23b872dd000000000000000000000000000000000000000000000000000000001790526109be908590610b84565b50505050565b6040517ffa1cb9f200000000000000000000000000000000000000000000000000000000815260009073ffffffffffffffffffffffffffffffffffffffff7f0000000000000000000000000000000000000000000000000000000000000000169063fa1cb9f290610a399087906004016118fe565b602060405180830381865afa158015610a56573d6000803e3d6000fd5b505050506040513d601f19601f82011682018060405250810190610a7a9190611911565b9050610ac184606001518285858080601f016020809104026020016040519081016040528093929190818152602001838380828437600092019190915250610c9092505050565b610b27576040517f08c379a000000000000000000000000000000000000000000000000000000000815260206004820152601160248201527f4f423a20626164207369676e617475726500000000000000000000000000000060448201526064016102a3565b80846060015173ffffffffffffffffffffffffffffffffffffffff167fc1624a2e52e06ce4ecf1f54498e7975056bb10117cd7fd48b6277fe4aa14ee1d868686604051610b769392919061192a565b60405180910390a350505050565b6000610be6826040518060400160405280602081526020017f5361666545524332303a206c6f772d6c6576656c2063616c6c206661696c65648152508573ffffffffffffffffffffffffffffffffffffffff16610e7f9092919063ffffffff16565b8051909150156107605780806020019051810190610c04919061198e565b610760576040517f08c379a000000000000000000000000000000000000000000000000000000000815260206004820152602a60248201527f5361666545524332303a204552433230206f7065726174696f6e20646964206e60448201527f6f7420737563636565640000000000000000000000000000000000000000000060648201526084016102a3565b6000806000610c9f8585610e96565b90925090506000816004811115610cb857610cb86119b0565b148015610cf057508573ffffffffffffffffffffffffffffffffffffffff168273ffffffffffffffffffffffffffffffffffffffff16145b15610d0057600192505050610916565b6000808773ffffffffffffffffffffffffffffffffffffffff16631626ba7e60e01b8888604051602401610d359291906119df565b604080517fffffffffffffffffffffffffffffffffffffffffffffffffffffffffffffffe08184030181529181526020820180517bffffffffffffffffffffffffffffffffffffffffffffffffffffffff167fffffffff00000000000000000000000000000000000000000000000000000000909416939093179092529051610dbe91906119f8565b600060405180830381855afa9150503d8060008114610df9576040519150601f19603f3d011682016040523d82523d6000602084013e610dfe565b606091505b5091509150818015610e11575080516020145b8015610e73575080517f1626ba7e0000000000000000000000000000000000000000000000000000000090610e4f9083016020908101908401611a14565b7fffffffff0000000000000000000000000000000000000000000000000000000016145b98975050505050505050565b6060610e8e8484600085610f06565b949350505050565b600080825160411415610ecd5760208301516040840151606085015160001a610ec18782858561109c565b94509450505050610eff565b825160401415610ef75760208301516040840151610eec8683836111b4565b935093505050610eff565b506000905060025b9250929050565b606082471015610f98576040517f08c379a000000000000000000000000000000000000000000000000000000000815260206004820152602660248201527f416464726573733a20696e73756666696369656e742062616c616e636520666f60448201527f722063616c6c000000000000000000000000000000000000000000000000000060648201526084016102a3565b73ffffffffffffffffffffffffffffffffffffffff85163b611016576040517f08c379a000000000000000000000000000000000000000000000000000000000815260206004820152601d60248201527f416464726573733a2063616c6c20746f206e6f6e2d636f6e747261637400000060448201526064016102a3565b6000808673ffffffffffffffffffffffffffffffffffffffff16858760405161103f91906119f8565b60006040518083038185875af1925050503d806000811461107c576040519150601f19603f3d011682016040523d82523d6000602084013e611081565b606091505b5091509150611091828286611206565b979650505050505050565b6000807f7fffffffffffffffffffffffffffffff5d576e7357a4501ddfe92f46681b20a08311156110d357506000905060036111ab565b8460ff16601b141580156110eb57508460ff16601c14155b156110fc57506000905060046111ab565b6040805160008082526020820180845289905260ff881692820192909252606081018690526080810185905260019060a0016020604051602081039080840390855afa158015611150573d6000803e3d6000fd5b50506040517fffffffffffffffffffffffffffffffffffffffffffffffffffffffffffffffe0015191505073ffffffffffffffffffffffffffffffffffffffff81166111a4576000600192509250506111ab565b9150600090505b94509492505050565b6000807f7fffffffffffffffffffffffffffffffffffffffffffffffffffffffffffffff8316816111ea60ff86901c601b611a56565b90506111f88782888561109c565b935093505050935093915050565b60608315611215575081610916565b8251156112255782518084602001fd5b816040517f08c379a00000000000000000000000000000000000000000000000000000000081526004016102a39190611a6e565b73ffffffffffffffffffffffffffffffffffffffff8116811461089257600080fd5b803561128681611259565b919050565b60006020828403121561129d57600080fd5b813561091681611259565b6000602082840312156112ba57600080fd5b5035919050565b7f4e487b7100000000000000000000000000000000000000000000000000000000600052604160045260246000fd5b6040516101e0810167ffffffffffffffff81118282101715611314576113146112c1565b60405290565b600082601f83011261132b57600080fd5b813567ffffffffffffffff80821115611346576113466112c1565b604051601f83017fffffffffffffffffffffffffffffffffffffffffffffffffffffffffffffffe0908116603f0116810190828211818310171561138c5761138c6112c1565b816040528381528660208588010111156113a557600080fd5b836020870160208301376000602085830101528094505050505092915050565b60008083601f8401126113d757600080fd5b50813567ffffffffffffffff8111156113ef57600080fd5b602083019150836020828501011115610eff57600080fd5b60008060006040848603121561141c57600080fd5b833567ffffffffffffffff8082111561143457600080fd5b908501906101e0828803121561144957600080fd5b6114516112f0565b823581526114616020840161127b565b60208201526114726040840161127b565b60408201526114836060840161127b565b60608201526114946080840161127b565b60808201526114a560a0840161127b565b60a082015260c083013560c082015260e083013560e082015261010080840135838111156114d257600080fd5b6114de8a82870161131a565b82840152505061012080840135838111156114f857600080fd5b6115048a82870161131a565b828401525050610140808401358381111561151e57600080fd5b61152a8a82870161131a565b828401525050610160808401358381111561154457600080fd5b6115508a82870161131a565b828401525050610180808401358381111561156a57600080fd5b6115768a82870161131a565b8284015250506101a0808401358381111561159057600080fd5b61159c8a82870161131a565b8284015250506101c080840135838111156115b657600080fd5b6115c28a82870161131a565b8284015250508095505060208601359150808211156115e057600080fd5b506115ed868287016113c5565b9497909650939450505050565b60005b838110156116155781810151838201526020016115fd565b838111156109be5750506000910152565b6000815180845261163e8160208601602086016115fa565b601f017fffffffffffffffffffffffffffffffffffffffffffffffffffffffffffffffe0169290920160200192915050565b60006101e08251845260208301516116a0602086018273ffffffffffffffffffffffffffffffffffffffff169052565b5060408301516116c8604086018273ffffffffffffffffffffffffffffffffffffffff169052565b5060608301516116f0606086018273ffffffffffffffffffffffffffffffffffffffff169052565b506080830151611718608086018273ffffffffffffffffffffffffffffffffffffffff169052565b5060a083015161174060a086018273ffffffffffffffffffffffffffffffffffffffff169052565b5060c083015160c085015260e083015160e085015261010080840151828287015261176d83870182611626565b9250505061012080840151858303828701526117898382611626565b9250505061014080840151858303828701526117a58382611626565b9250505061016080840151858303828701526117c18382611626565b9250505061018080840151858303828701526117dd8382611626565b925050506101a080840151858303828701526117f98382611626565b925050506101c080840151858303828701526118158382611626565b9695505050505050565b6040815260006118326040830185611670565b905073ffffffffffffffffffffffffffffffffffffffff831660208301529392505050565b7f4e487b7100000000000000000000000000000000000000000000000000000000600052601160045260246000fd5b6000817fffffffffffffffffffffffffffffffffffffffffffffffffffffffffffffffff04831182151516156118be576118be611857565b500290565b6000826118f9577f4e487b7100000000000000000000000000000000000000000000000000000000600052601260045260246000fd5b500490565b6020815260006109166020830184611670565b60006020828403121561192357600080fd5b5051919050565b60408152600061193d6040830186611670565b82810360208401528381528385602083013760006020858301015260207fffffffffffffffffffffffffffffffffffffffffffffffffffffffffffffffe0601f860116820101915050949350505050565b6000602082840312156119a057600080fd5b8151801515811461091657600080fd5b7f4e487b7100000000000000000000000000000000000000000000000000000000600052602160045260246000fd5b828152604060208201526000610e8e6040830184611626565b60008251611a0a8184602087016115fa565b9190910192915050565b600060208284031215611a2657600080fd5b81517fffffffff000000000000000000000000000000000000000000000000000000008116811461091657600080fd5b60008219821115611a6957611a69611857565b500190565b602081526000610916602083018461162656fea264697066735822122006eb1dd7d2d944c458f57979d4c9e21e98a241e030c96428be26b33f664145b764736f6c634300080b0033",
  "devdoc": {
    "kind": "dev",
    "methods": {
      "changeFee(uint256)": {
        "params": {
          "_fee": "The new fee"
        }
      },
      "changeFeeRecipient(address)": {
        "params": {
          "_feeRecipient": "The new fee recipient"
        }
      },
      "changeRewardDistributor(address)": {
        "params": {
          "_rewardDistributor": "The new reward distributor. 0 address will disable rewards"
        }
      },
      "owner()": {
        "details": "Returns the address of the current owner."
      },
      "renounceOwnership()": {
        "details": "Leaves the contract without owner. It will not be possible to call `onlyOwner` functions anymore. Can only be called by the current owner. NOTE: Renouncing ownership will leave the contract without an owner, thereby removing any functionality that is only available to the owner."
      },
      "transferOwnership(address)": {
        "details": "Transfers ownership of the contract to a new account (`newOwner`). Can only be called by the current owner."
      }
    },
    "title": "Public Ubeswap order book",
    "version": 1
  },
  "userdoc": {
    "events": {
      "OrderBroadcasted(address,bytes32,(uint256,address,address,address,address,address,uint256,uint256,bytes,bytes,bytes,bytes,bytes,bytes,bytes),bytes)": {
        "notice": "Emitted every time an order is broadcasted"
      }
    },
    "kind": "user",
    "methods": {
      "MAX_FEE()": {
        "notice": "Maximum fee is 10 bps"
      },
      "PCT_DENOMINATOR()": {
        "notice": "Denominator for fee"
      },
      "changeFee(uint256)": {
        "notice": "Admin function to change the fee rate"
      },
      "changeFeeRecipient(address)": {
        "notice": "Admin function to change the fee recipient"
      },
      "changeRewardDistributor(address)": {
        "notice": "Admin function to change the reward distributor contract"
      },
      "fee()": {
        "notice": "Fee for broadcasting an order. In units of PCT_DENOMINATOR"
      },
      "feeRecipient()": {
        "notice": "Fee recipient"
      },
      "limitOrderProtocol()": {
        "notice": "The limit order protocol this orderbook references"
      },
      "rewardDistributor()": {
        "notice": "Reward distributor module"
      }
    },
    "version": 1
  },
  "storageLayout": {
    "storage": [
      {
        "astId": 110,
        "contract": "contracts/UbeswapOrderBook.sol:UbeswapOrderBook",
        "label": "_owner",
        "offset": 0,
        "slot": "0",
        "type": "t_address"
      },
      {
        "astId": 5607,
        "contract": "contracts/UbeswapOrderBook.sol:UbeswapOrderBook",
        "label": "fee",
        "offset": 0,
        "slot": "1",
        "type": "t_uint256"
      },
      {
        "astId": 5610,
        "contract": "contracts/UbeswapOrderBook.sol:UbeswapOrderBook",
        "label": "feeRecipient",
        "offset": 0,
        "slot": "2",
        "type": "t_address"
      },
      {
        "astId": 5614,
        "contract": "contracts/UbeswapOrderBook.sol:UbeswapOrderBook",
        "label": "rewardDistributor",
        "offset": 0,
        "slot": "3",
        "type": "t_contract(IOrderRewardDistributor)6783"
      }
    ],
    "types": {
      "t_address": {
        "encoding": "inplace",
        "label": "address",
        "numberOfBytes": "20"
      },
      "t_contract(IOrderRewardDistributor)6783": {
        "encoding": "inplace",
        "label": "contract IOrderRewardDistributor",
        "numberOfBytes": "20"
      },
      "t_uint256": {
        "encoding": "inplace",
        "label": "uint256",
        "numberOfBytes": "32"
      }
    }
  }
}