{
  "address": "0x38266325549736089cAa5FF9b4a2Bdb07Fd5d6C9",
  "abi": [
    {
      "inputs": [
        {
          "internalType": "contract ILimitOrderProtocol",
          "name": "_limitOrderProtocol",
          "type": "address"
        }
      ],
      "stateMutability": "nonpayable",
      "type": "constructor"
    },
    {
      "anonymous": false,
      "inputs": [
        {
          "indexed": true,
          "internalType": "address",
          "name": "maker",
          "type": "address"
        },
        {
          "indexed": false,
          "internalType": "bytes32",
          "name": "orderHash",
          "type": "bytes32"
        }
      ],
      "name": "OrderBroadcasted",
      "type": "event"
    },
    {
      "inputs": [],
      "name": "BPS",
      "outputs": [
        {
          "internalType": "uint256",
          "name": "",
          "type": "uint256"
        }
      ],
      "stateMutability": "view",
      "type": "function"
    },
    {
      "inputs": [
        {
          "components": [
            {
              "internalType": "uint256",
              "name": "salt",
              "type": "uint256"
            },
            {
              "internalType": "address",
              "name": "makerAsset",
              "type": "address"
            },
            {
              "internalType": "address",
              "name": "takerAsset",
              "type": "address"
            },
            {
              "internalType": "address",
              "name": "maker",
              "type": "address"
            },
            {
              "internalType": "address",
              "name": "receiver",
              "type": "address"
            },
            {
              "internalType": "address",
              "name": "allowedSender",
              "type": "address"
            },
            {
              "internalType": "uint256",
              "name": "makingAmount",
              "type": "uint256"
            },
            {
              "internalType": "uint256",
              "name": "takingAmount",
              "type": "uint256"
            },
            {
              "internalType": "bytes",
              "name": "makerAssetData",
              "type": "bytes"
            },
            {
              "internalType": "bytes",
              "name": "takerAssetData",
              "type": "bytes"
            },
            {
              "internalType": "bytes",
              "name": "getMakerAmount",
              "type": "bytes"
            },
            {
              "internalType": "bytes",
              "name": "getTakerAmount",
              "type": "bytes"
            },
            {
              "internalType": "bytes",
              "name": "predicate",
              "type": "bytes"
            },
            {
              "internalType": "bytes",
              "name": "permit",
              "type": "bytes"
            },
            {
              "internalType": "bytes",
              "name": "interaction",
              "type": "bytes"
            }
          ],
          "internalType": "struct ILimitOrderProtocol.Order",
          "name": "_order",
          "type": "tuple"
        },
        {
          "internalType": "bytes",
          "name": "_signature",
          "type": "bytes"
        },
        {
          "internalType": "uint256",
          "name": "_fee",
          "type": "uint256"
        },
        {
          "internalType": "address",
          "name": "_feeRecipient",
          "type": "address"
        }
      ],
      "name": "broadcastOrder",
      "outputs": [],
      "stateMutability": "nonpayable",
      "type": "function"
    },
    {
      "inputs": [],
      "name": "limitOrderProtocol",
      "outputs": [
        {
          "internalType": "contract ILimitOrderProtocol",
          "name": "",
          "type": "address"
        }
      ],
      "stateMutability": "view",
      "type": "function"
    },
    {
      "inputs": [
        {
          "internalType": "bytes32",
          "name": "_orderHash",
          "type": "bytes32"
        }
      ],
      "name": "orders",
      "outputs": [
        {
          "components": [
            {
              "internalType": "uint256",
              "name": "salt",
              "type": "uint256"
            },
            {
              "internalType": "address",
              "name": "makerAsset",
              "type": "address"
            },
            {
              "internalType": "address",
              "name": "takerAsset",
              "type": "address"
            },
            {
              "internalType": "address",
              "name": "maker",
              "type": "address"
            },
            {
              "internalType": "address",
              "name": "receiver",
              "type": "address"
            },
            {
              "internalType": "address",
              "name": "allowedSender",
              "type": "address"
            },
            {
              "internalType": "uint256",
              "name": "makingAmount",
              "type": "uint256"
            },
            {
              "internalType": "uint256",
              "name": "takingAmount",
              "type": "uint256"
            },
            {
              "internalType": "bytes",
              "name": "makerAssetData",
              "type": "bytes"
            },
            {
              "internalType": "bytes",
              "name": "takerAssetData",
              "type": "bytes"
            },
            {
              "internalType": "bytes",
              "name": "getMakerAmount",
              "type": "bytes"
            },
            {
              "internalType": "bytes",
              "name": "getTakerAmount",
              "type": "bytes"
            },
            {
              "internalType": "bytes",
              "name": "predicate",
              "type": "bytes"
            },
            {
              "internalType": "bytes",
              "name": "permit",
              "type": "bytes"
            },
            {
              "internalType": "bytes",
              "name": "interaction",
              "type": "bytes"
            }
          ],
          "internalType": "struct ILimitOrderProtocol.Order",
          "name": "order",
          "type": "tuple"
        }
      ],
      "stateMutability": "view",
      "type": "function"
    },
    {
      "inputs": [
        {
          "internalType": "bytes32",
          "name": "",
          "type": "bytes32"
        }
      ],
      "name": "signatures",
      "outputs": [
        {
          "internalType": "bytes",
          "name": "",
          "type": "bytes"
        }
      ],
      "stateMutability": "view",
      "type": "function"
    }
  ],
  "transactionHash": "0xd6aa26702e75b15d2453dbcf1aaa9613b4d078e5531ec1a0b621f361c7d83dc0",
  "args": [
    "0x3927846Ef15359b3DD4Ae6437C1BF9b71244ba37"
  ],
  "numDeployments": 1,
  "solcInputHash": "3a76eeb7906035458241204b6f1ab5a0",
  "bytecode": "0x60a060405234801561001057600080fd5b50604051611de9380380611de983398101604081905261002f91610040565b6001600160a01b0316608052610070565b60006020828403121561005257600080fd5b81516001600160a01b038116811461006957600080fd5b9392505050565b608051611d586100916000396000818160b101526109a60152611d586000f3fe608060405234801561001057600080fd5b50600436106100675760003560e01c80637f94dd33116100505780637f94dd33146100ac5780639c3f1e90146100f8578063dcfc73ca1461011857600080fd5b80632422224e1461006c578063249d39e914610095575b600080fd5b61007f61007a36600461153a565b61012d565b60405161008c91906115c9565b60405180910390f35b61009e6103e881565b60405190815260200161008c565b6100d37f000000000000000000000000000000000000000000000000000000000000000081565b60405173ffffffffffffffffffffffffffffffffffffffff909116815260200161008c565b61010b61010636600461153a565b6101c7565b60405161008c91906115dc565b61012b610126366004611920565b6107c3565b005b6000602081905290815260409020805461014690611b2e565b80601f016020809104026020016040519081016040528092919081815260200182805461017290611b2e565b80156101bf5780601f10610194576101008083540402835291602001916101bf565b820191906000526020600020905b8154815290600101906020018083116101a257829003601f168201915b505050505081565b6102ae604051806101e0016040528060008152602001600073ffffffffffffffffffffffffffffffffffffffff168152602001600073ffffffffffffffffffffffffffffffffffffffff168152602001600073ffffffffffffffffffffffffffffffffffffffff168152602001600073ffffffffffffffffffffffffffffffffffffffff168152602001600073ffffffffffffffffffffffffffffffffffffffff1681526020016000815260200160008152602001606081526020016060815260200160608152602001606081526020016060815260200160608152602001606081525090565b604080516101e081018252600084815260016020908152838220548352858252600281528382205473ffffffffffffffffffffffffffffffffffffffff90811682850152868352600382528483205481168486015286835260048252848320548116606085015286835260058252848320548116608085015286835260068252848320541660a0840152858252600781528382205460c0840152858252600881528382205460e0840152858252600990529190912080546101008301919061037590611b2e565b80601f01602080910402602001604051908101604052809291908181526020018280546103a190611b2e565b80156103ee5780601f106103c3576101008083540402835291602001916103ee565b820191906000526020600020905b8154815290600101906020018083116103d157829003601f168201915b50505050508152602001600a6000858152602001908152602001600020805461041690611b2e565b80601f016020809104026020016040519081016040528092919081815260200182805461044290611b2e565b801561048f5780601f106104645761010080835404028352916020019161048f565b820191906000526020600020905b81548152906001019060200180831161047257829003601f168201915b50505050508152602001600b600085815260200190815260200160002080546104b790611b2e565b80601f01602080910402602001604051908101604052809291908181526020018280546104e390611b2e565b80156105305780601f1061050557610100808354040283529160200191610530565b820191906000526020600020905b81548152906001019060200180831161051357829003601f168201915b50505050508152602001600c6000858152602001908152602001600020805461055890611b2e565b80601f016020809104026020016040519081016040528092919081815260200182805461058490611b2e565b80156105d15780601f106105a6576101008083540402835291602001916105d1565b820191906000526020600020905b8154815290600101906020018083116105b457829003601f168201915b50505050508152602001600d600085815260200190815260200160002080546105f990611b2e565b80601f016020809104026020016040519081016040528092919081815260200182805461062590611b2e565b80156106725780601f1061064757610100808354040283529160200191610672565b820191906000526020600020905b81548152906001019060200180831161065557829003601f168201915b50505050508152602001600e6000858152602001908152602001600020805461069a90611b2e565b80601f01602080910402602001604051908101604052809291908181526020018280546106c690611b2e565b80156107135780601f106106e857610100808354040283529160200191610713565b820191906000526020600020905b8154815290600101906020018083116106f657829003601f168201915b50505050508152602001600f6000858152602001908152602001600020805461073b90611b2e565b80601f016020809104026020016040519081016040528092919081815260200182805461076790611b2e565b80156107b45780601f10610789576101008083540402835291602001916107b4565b820191906000526020600020905b81548152906001019060200180831161079757829003601f168201915b50505050508152509050919050565b73ffffffffffffffffffffffffffffffffffffffff8116610845576040517f08c379a000000000000000000000000000000000000000000000000000000000815260206004820152601b60248201527f4f4257463a20496e76616c69642066656520726563697069656e74000000000060448201526064015b60405180910390fd5b600061086a6103e86108648860c00151866108ac90919063ffffffff16565b906108bf565b905080156108995760208601516108999073ffffffffffffffffffffffffffffffffffffffff163384846108cb565b6108a4868686610966565b505050505050565b60006108b88284611bb1565b9392505050565b60006108b88284611bee565b6040805173ffffffffffffffffffffffffffffffffffffffff85811660248301528416604482015260648082018490528251808303909101815260849091019091526020810180517bffffffffffffffffffffffffffffffffffffffffffffffffffffffff167f23b872dd00000000000000000000000000000000000000000000000000000000179052610960908590610d35565b50505050565b6040517ffa1cb9f200000000000000000000000000000000000000000000000000000000815260009073ffffffffffffffffffffffffffffffffffffffff7f0000000000000000000000000000000000000000000000000000000000000000169063fa1cb9f2906109db9087906004016115dc565b602060405180830381865afa1580156109f8573d6000803e3d6000fd5b505050506040513d601f19601f82011682018060405250810190610a1c9190611c29565b9050610a6384606001518285858080601f016020809104026020016040519081016040528093929190818152602001838380828437600092019190915250610e4692505050565b610ac9576040517f08c379a000000000000000000000000000000000000000000000000000000000815260206004820152601160248201527f4f423a20626164207369676e6174757265000000000000000000000000000000604482015260640161083c565b8351600082815260016020908152604080832093909355808701516002825283832080547fffffffffffffffffffffffff000000000000000000000000000000000000000090811673ffffffffffffffffffffffffffffffffffffffff93841617909155848901516003845285852080548316918416919091179055606089015160048452858520805483169184169190911790556080890151600584528585208054831691841691909117905560a0890151600684528585208054909216921691909117905560c0870151600782528383205560e0870151600882528383205561010087015160098252929091208251610bca939192919091019061140f565b506101208401516000828152600a602090815260409091208251610bf39391929091019061140f565b506101408401516000828152600b602090815260409091208251610c1c9391929091019061140f565b506101608401516000828152600c602090815260409091208251610c459391929091019061140f565b506101808401516000828152600d602090815260409091208251610c6e9391929091019061140f565b506101a08401516000828152600e602090815260409091208251610c979391929091019061140f565b506101c08401516000828152600f602090815260409091208251610cc09391929091019061140f565b506000818152602081905260409020610cda908484611493565b50836060015173ffffffffffffffffffffffffffffffffffffffff167fdf482aa70d52efefab20dbfaf9cc2b0cb880c75e72e26972c9c5d29c2c02f56382604051610d2791815260200190565b60405180910390a250505050565b6000610d97826040518060400160405280602081526020017f5361666545524332303a206c6f772d6c6576656c2063616c6c206661696c65648152508573ffffffffffffffffffffffffffffffffffffffff166110359092919063ffffffff16565b805190915015610e415780806020019051810190610db59190611c42565b610e41576040517f08c379a000000000000000000000000000000000000000000000000000000000815260206004820152602a60248201527f5361666545524332303a204552433230206f7065726174696f6e20646964206e60448201527f6f74207375636365656400000000000000000000000000000000000000000000606482015260840161083c565b505050565b6000806000610e55858561104c565b90925090506000816004811115610e6e57610e6e611c64565b148015610ea657508573ffffffffffffffffffffffffffffffffffffffff168273ffffffffffffffffffffffffffffffffffffffff16145b15610eb6576001925050506108b8565b6000808773ffffffffffffffffffffffffffffffffffffffff16631626ba7e60e01b8888604051602401610eeb929190611c93565b604080517fffffffffffffffffffffffffffffffffffffffffffffffffffffffffffffffe08184030181529181526020820180517bffffffffffffffffffffffffffffffffffffffffffffffffffffffff167fffffffff00000000000000000000000000000000000000000000000000000000909416939093179092529051610f749190611cac565b600060405180830381855afa9150503d8060008114610faf576040519150601f19603f3d011682016040523d82523d6000602084013e610fb4565b606091505b5091509150818015610fc7575080516020145b8015611029575080517f1626ba7e00000000000000000000000000000000000000000000000000000000906110059083016020908101908401611cc8565b7fffffffff0000000000000000000000000000000000000000000000000000000016145b98975050505050505050565b606061104484846000856110bc565b949350505050565b6000808251604114156110835760208301516040840151606085015160001a61107787828585611252565b945094505050506110b5565b8251604014156110ad57602083015160408401516110a286838361136a565b9350935050506110b5565b506000905060025b9250929050565b60608247101561114e576040517f08c379a000000000000000000000000000000000000000000000000000000000815260206004820152602660248201527f416464726573733a20696e73756666696369656e742062616c616e636520666f60448201527f722063616c6c0000000000000000000000000000000000000000000000000000606482015260840161083c565b73ffffffffffffffffffffffffffffffffffffffff85163b6111cc576040517f08c379a000000000000000000000000000000000000000000000000000000000815260206004820152601d60248201527f416464726573733a2063616c6c20746f206e6f6e2d636f6e7472616374000000604482015260640161083c565b6000808673ffffffffffffffffffffffffffffffffffffffff1685876040516111f59190611cac565b60006040518083038185875af1925050503d8060008114611232576040519150601f19603f3d011682016040523d82523d6000602084013e611237565b606091505b50915091506112478282866113bc565b979650505050505050565b6000807f7fffffffffffffffffffffffffffffff5d576e7357a4501ddfe92f46681b20a08311156112895750600090506003611361565b8460ff16601b141580156112a157508460ff16601c14155b156112b25750600090506004611361565b6040805160008082526020820180845289905260ff881692820192909252606081018690526080810185905260019060a0016020604051602081039080840390855afa158015611306573d6000803e3d6000fd5b50506040517fffffffffffffffffffffffffffffffffffffffffffffffffffffffffffffffe0015191505073ffffffffffffffffffffffffffffffffffffffff811661135a57600060019250925050611361565b9150600090505b94509492505050565b6000807f7fffffffffffffffffffffffffffffffffffffffffffffffffffffffffffffff8316816113a060ff86901c601b611d0a565b90506113ae87828885611252565b935093505050935093915050565b606083156113cb5750816108b8565b8251156113db5782518084602001fd5b816040517f08c379a000000000000000000000000000000000000000000000000000000000815260040161083c91906115c9565b82805461141b90611b2e565b90600052602060002090601f01602090048101928261143d5760008555611483565b82601f1061145657805160ff1916838001178555611483565b82800160010185558215611483579182015b82811115611483578251825591602001919060010190611468565b5061148f929150611525565b5090565b82805461149f90611b2e565b90600052602060002090601f0160209004810192826114c15760008555611483565b82601f106114f8578280017fffffffffffffffffffffffffffffffffffffffffffffffffffffffffffffff00823516178555611483565b82800160010185558215611483579182015b8281111561148357823582559160200191906001019061150a565b5b8082111561148f5760008155600101611526565b60006020828403121561154c57600080fd5b5035919050565b60005b8381101561156e578181015183820152602001611556565b838111156109605750506000910152565b60008151808452611597816020860160208601611553565b601f017fffffffffffffffffffffffffffffffffffffffffffffffffffffffffffffffe0169290920160200192915050565b6020815260006108b8602083018461157f565b602081528151602082015260006020830151611610604084018273ffffffffffffffffffffffffffffffffffffffff169052565b50604083015173ffffffffffffffffffffffffffffffffffffffff8116606084015250606083015173ffffffffffffffffffffffffffffffffffffffff8116608084015250608083015173ffffffffffffffffffffffffffffffffffffffff811660a08401525060a083015173ffffffffffffffffffffffffffffffffffffffff811660c08401525060c083015160e083015260e08301516101008181850152808501519150506101e061012081818601526116d061020086018461157f565b92508086015190507fffffffffffffffffffffffffffffffffffffffffffffffffffffffffffffffe061014081878603018188015261170f858461157f565b94508088015192505061016081878603018188015261172e858461157f565b94508088015192505061018081878603018188015261174d858461157f565b9450808801519250506101a081878603018188015261176c858461157f565b9450808801519250506101c081878603018188015261178b858461157f565b9088015187820390920184880152935090506117a7838261157f565b9695505050505050565b7f4e487b7100000000000000000000000000000000000000000000000000000000600052604160045260246000fd5b6040516101e0810167ffffffffffffffff81118282101715611804576118046117b1565b60405290565b803573ffffffffffffffffffffffffffffffffffffffff8116811461182e57600080fd5b919050565b600082601f83011261184457600080fd5b813567ffffffffffffffff8082111561185f5761185f6117b1565b604051601f83017fffffffffffffffffffffffffffffffffffffffffffffffffffffffffffffffe0908116603f011681019082821181831017156118a5576118a56117b1565b816040528381528660208588010111156118be57600080fd5b836020870160208301376000602085830101528094505050505092915050565b60008083601f8401126118f057600080fd5b50813567ffffffffffffffff81111561190857600080fd5b6020830191508360208285010111156110b557600080fd5b60008060008060006080868803121561193857600080fd5b853567ffffffffffffffff8082111561195057600080fd5b908701906101e0828a03121561196557600080fd5b61196d6117e0565b8235815261197d6020840161180a565b602082015261198e6040840161180a565b604082015261199f6060840161180a565b60608201526119b06080840161180a565b60808201526119c160a0840161180a565b60a082015260c083013560c082015260e083013560e082015261010080840135838111156119ee57600080fd5b6119fa8c828701611833565b8284015250506101208084013583811115611a1457600080fd5b611a208c828701611833565b8284015250506101408084013583811115611a3a57600080fd5b611a468c828701611833565b8284015250506101608084013583811115611a6057600080fd5b611a6c8c828701611833565b8284015250506101808084013583811115611a8657600080fd5b611a928c828701611833565b8284015250506101a08084013583811115611aac57600080fd5b611ab88c828701611833565b8284015250506101c08084013583811115611ad257600080fd5b611ade8c828701611833565b828401525050809750506020880135915080821115611afc57600080fd5b50611b09888289016118de565b90955093505060408601359150611b226060870161180a565b90509295509295909350565b600181811c90821680611b4257607f821691505b60208210811415611b7c577f4e487b7100000000000000000000000000000000000000000000000000000000600052602260045260246000fd5b50919050565b7f4e487b7100000000000000000000000000000000000000000000000000000000600052601160045260246000fd5b6000817fffffffffffffffffffffffffffffffffffffffffffffffffffffffffffffffff0483118215151615611be957611be9611b82565b500290565b600082611c24577f4e487b7100000000000000000000000000000000000000000000000000000000600052601260045260246000fd5b500490565b600060208284031215611c3b57600080fd5b5051919050565b600060208284031215611c5457600080fd5b815180151581146108b857600080fd5b7f4e487b7100000000000000000000000000000000000000000000000000000000600052602160045260246000fd5b828152604060208201526000611044604083018461157f565b60008251611cbe818460208701611553565b9190910192915050565b600060208284031215611cda57600080fd5b81517fffffffff00000000000000000000000000000000000000000000000000000000811681146108b857600080fd5b60008219821115611d1d57611d1d611b82565b50019056fea2646970667358221220827ce78b6d511d9ebae855b4ca23a24378063f68ceacfa5c38ebdb3e1e3ac1b964736f6c634300080b0033",
  "devdoc": {
    "kind": "dev",
    "methods": {
      "orders(bytes32)": {
        "params": {
          "_orderHash": "An order's hash to fetch the underlying order"
        },
        "returns": {
          "order": "The order that corresponds to the _orderHash"
        }
      }
    },
    "title": "Public order book with fees",
    "version": 1
  },
  "userdoc": {
    "events": {
      "OrderBroadcasted(address,bytes32)": {
        "notice": "Emitted every time an order is broadcasted"
      }
    },
    "kind": "user",
    "methods": {
      "BPS()": {
        "notice": "Denominator for bps"
      },
      "limitOrderProtocol()": {
        "notice": "The limit order protocol this orderbook references"
      },
      "orders(bytes32)": {
        "notice": "Get a broadcasted order"
      },
      "signatures(bytes32)": {
        "notice": "Mapping from order hash to an Order's signature"
      }
    },
    "version": 1
  },
  "storageLayout": {
    "storage": [
      {
        "astId": 3608,
        "contract": "contracts/OrderBookWithFee.sol:OrderBookWithFee",
        "label": "signatures",
        "offset": 0,
        "slot": "0",
        "type": "t_mapping(t_bytes32,t_bytes_storage)"
      },
      {
        "astId": 3612,
        "contract": "contracts/OrderBookWithFee.sol:OrderBookWithFee",
        "label": "_salts",
        "offset": 0,
        "slot": "1",
        "type": "t_mapping(t_bytes32,t_uint256)"
      },
      {
        "astId": 3616,
        "contract": "contracts/OrderBookWithFee.sol:OrderBookWithFee",
        "label": "_makerAssets",
        "offset": 0,
        "slot": "2",
        "type": "t_mapping(t_bytes32,t_address)"
      },
      {
        "astId": 3620,
        "contract": "contracts/OrderBookWithFee.sol:OrderBookWithFee",
        "label": "_takerAssets",
        "offset": 0,
        "slot": "3",
        "type": "t_mapping(t_bytes32,t_address)"
      },
      {
        "astId": 3624,
        "contract": "contracts/OrderBookWithFee.sol:OrderBookWithFee",
        "label": "_makers",
        "offset": 0,
        "slot": "4",
        "type": "t_mapping(t_bytes32,t_address)"
      },
      {
        "astId": 3628,
        "contract": "contracts/OrderBookWithFee.sol:OrderBookWithFee",
        "label": "_receivers",
        "offset": 0,
        "slot": "5",
        "type": "t_mapping(t_bytes32,t_address)"
      },
      {
        "astId": 3632,
        "contract": "contracts/OrderBookWithFee.sol:OrderBookWithFee",
        "label": "_allowedSenders",
        "offset": 0,
        "slot": "6",
        "type": "t_mapping(t_bytes32,t_address)"
      },
      {
        "astId": 3636,
        "contract": "contracts/OrderBookWithFee.sol:OrderBookWithFee",
        "label": "_makingAmounts",
        "offset": 0,
        "slot": "7",
        "type": "t_mapping(t_bytes32,t_uint256)"
      },
      {
        "astId": 3640,
        "contract": "contracts/OrderBookWithFee.sol:OrderBookWithFee",
        "label": "_takingAmounts",
        "offset": 0,
        "slot": "8",
        "type": "t_mapping(t_bytes32,t_uint256)"
      },
      {
        "astId": 3644,
        "contract": "contracts/OrderBookWithFee.sol:OrderBookWithFee",
        "label": "_makerAssetDatas",
        "offset": 0,
        "slot": "9",
        "type": "t_mapping(t_bytes32,t_bytes_storage)"
      },
      {
        "astId": 3648,
        "contract": "contracts/OrderBookWithFee.sol:OrderBookWithFee",
        "label": "_takerAssetDatas",
        "offset": 0,
        "slot": "10",
        "type": "t_mapping(t_bytes32,t_bytes_storage)"
      },
      {
        "astId": 3652,
        "contract": "contracts/OrderBookWithFee.sol:OrderBookWithFee",
        "label": "_getMakerAmounts",
        "offset": 0,
        "slot": "11",
        "type": "t_mapping(t_bytes32,t_bytes_storage)"
      },
      {
        "astId": 3656,
        "contract": "contracts/OrderBookWithFee.sol:OrderBookWithFee",
        "label": "_getTakerAmounts",
        "offset": 0,
        "slot": "12",
        "type": "t_mapping(t_bytes32,t_bytes_storage)"
      },
      {
        "astId": 3660,
        "contract": "contracts/OrderBookWithFee.sol:OrderBookWithFee",
        "label": "_predicates",
        "offset": 0,
        "slot": "13",
        "type": "t_mapping(t_bytes32,t_bytes_storage)"
      },
      {
        "astId": 3664,
        "contract": "contracts/OrderBookWithFee.sol:OrderBookWithFee",
        "label": "_permits",
        "offset": 0,
        "slot": "14",
        "type": "t_mapping(t_bytes32,t_bytes_storage)"
      },
      {
        "astId": 3668,
        "contract": "contracts/OrderBookWithFee.sol:OrderBookWithFee",
        "label": "_interactions",
        "offset": 0,
        "slot": "15",
        "type": "t_mapping(t_bytes32,t_bytes_storage)"
      }
    ],
    "types": {
      "t_address": {
        "encoding": "inplace",
        "label": "address",
        "numberOfBytes": "20"
      },
      "t_bytes32": {
        "encoding": "inplace",
        "label": "bytes32",
        "numberOfBytes": "32"
      },
      "t_bytes_storage": {
        "encoding": "bytes",
        "label": "bytes",
        "numberOfBytes": "32"
      },
      "t_mapping(t_bytes32,t_address)": {
        "encoding": "mapping",
        "key": "t_bytes32",
        "label": "mapping(bytes32 => address)",
        "numberOfBytes": "32",
        "value": "t_address"
      },
      "t_mapping(t_bytes32,t_bytes_storage)": {
        "encoding": "mapping",
        "key": "t_bytes32",
        "label": "mapping(bytes32 => bytes)",
        "numberOfBytes": "32",
        "value": "t_bytes_storage"
      },
      "t_mapping(t_bytes32,t_uint256)": {
        "encoding": "mapping",
        "key": "t_bytes32",
        "label": "mapping(bytes32 => uint256)",
        "numberOfBytes": "32",
        "value": "t_uint256"
      },
      "t_uint256": {
        "encoding": "inplace",
        "label": "uint256",
        "numberOfBytes": "32"
      }
    }
  }
}