{
  "address": "0xab8e14e21fdd68b1f960446d97a33e42a8147cf4",
  "abi": [
    {
      "inputs": [
        {
          "internalType": "contract LimitOrderProtocol",
          "name": "_limitOrderProtocol",
          "type": "address"
        }
      ],
      "stateMutability": "nonpayable",
      "type": "constructor"
    },
    {
      "anonymous": false,
      "inputs": [
        {
          "indexed": true,
          "internalType": "address",
          "name": "maker",
          "type": "address"
        },
        {
          "indexed": true,
          "internalType": "bytes32",
          "name": "orderHash",
          "type": "bytes32"
        },
        {
          "components": [
            {
              "internalType": "uint256",
              "name": "salt",
              "type": "uint256"
            },
            {
              "internalType": "address",
              "name": "makerAsset",
              "type": "address"
            },
            {
              "internalType": "address",
              "name": "takerAsset",
              "type": "address"
            },
            {
              "internalType": "address",
              "name": "maker",
              "type": "address"
            },
            {
              "internalType": "address",
              "name": "receiver",
              "type": "address"
            },
            {
              "internalType": "address",
              "name": "allowedSender",
              "type": "address"
            },
            {
              "internalType": "uint256",
              "name": "makingAmount",
              "type": "uint256"
            },
            {
              "internalType": "uint256",
              "name": "takingAmount",
              "type": "uint256"
            },
            {
              "internalType": "bytes",
              "name": "makerAssetData",
              "type": "bytes"
            },
            {
              "internalType": "bytes",
              "name": "takerAssetData",
              "type": "bytes"
            },
            {
              "internalType": "bytes",
              "name": "getMakerAmount",
              "type": "bytes"
            },
            {
              "internalType": "bytes",
              "name": "getTakerAmount",
              "type": "bytes"
            },
            {
              "internalType": "bytes",
              "name": "predicate",
              "type": "bytes"
            },
            {
              "internalType": "bytes",
              "name": "permit",
              "type": "bytes"
            },
            {
              "internalType": "bytes",
              "name": "interaction",
              "type": "bytes"
            }
          ],
          "indexed": false,
          "internalType": "struct OrderMixin.Order",
          "name": "order",
          "type": "tuple"
        },
        {
          "indexed": false,
          "internalType": "bytes",
          "name": "signature",
          "type": "bytes"
        }
      ],
      "name": "OrderBroadcasted",
      "type": "event"
    },
    {
      "inputs": [],
      "name": "FEE_DENOMINATOR",
      "outputs": [
        {
          "internalType": "uint256",
          "name": "",
          "type": "uint256"
        }
      ],
      "stateMutability": "view",
      "type": "function"
    },
    {
      "inputs": [
        {
          "components": [
            {
              "internalType": "uint256",
              "name": "salt",
              "type": "uint256"
            },
            {
              "internalType": "address",
              "name": "makerAsset",
              "type": "address"
            },
            {
              "internalType": "address",
              "name": "takerAsset",
              "type": "address"
            },
            {
              "internalType": "address",
              "name": "maker",
              "type": "address"
            },
            {
              "internalType": "address",
              "name": "receiver",
              "type": "address"
            },
            {
              "internalType": "address",
              "name": "allowedSender",
              "type": "address"
            },
            {
              "internalType": "uint256",
              "name": "makingAmount",
              "type": "uint256"
            },
            {
              "internalType": "uint256",
              "name": "takingAmount",
              "type": "uint256"
            },
            {
              "internalType": "bytes",
              "name": "makerAssetData",
              "type": "bytes"
            },
            {
              "internalType": "bytes",
              "name": "takerAssetData",
              "type": "bytes"
            },
            {
              "internalType": "bytes",
              "name": "getMakerAmount",
              "type": "bytes"
            },
            {
              "internalType": "bytes",
              "name": "getTakerAmount",
              "type": "bytes"
            },
            {
              "internalType": "bytes",
              "name": "predicate",
              "type": "bytes"
            },
            {
              "internalType": "bytes",
              "name": "permit",
              "type": "bytes"
            },
            {
              "internalType": "bytes",
              "name": "interaction",
              "type": "bytes"
            }
          ],
          "internalType": "struct OrderMixin.Order",
          "name": "_order",
          "type": "tuple"
        },
        {
          "internalType": "bytes",
          "name": "_signature",
          "type": "bytes"
        },
        {
          "internalType": "uint256",
          "name": "_fee",
          "type": "uint256"
        },
        {
          "internalType": "address",
          "name": "_feeRecipient",
          "type": "address"
        }
      ],
      "name": "broadcastOrder",
      "outputs": [],
      "stateMutability": "nonpayable",
      "type": "function"
    },
    {
      "inputs": [],
      "name": "limitOrderProtocol",
      "outputs": [
        {
          "internalType": "contract LimitOrderProtocol",
          "name": "",
          "type": "address"
        }
      ],
      "stateMutability": "view",
      "type": "function"
    }
  ],
  "transactionHash": "0xd6d6056606fab2990391f97c9f76887244c61ae080ac43f1c153fffca3eec8e5",
  "args": [
    "0x2984ADdB8479D26360150Cf1dFb43D44534b43e2"
  ],
  "numDeployments": 2,
  "solcInputHash": "7a68c96bbcd8cb7879be0d85aceb0f91",
  "bytecode": "0x60a060405234801561001057600080fd5b5060405161139538038061139583398101604081905261002f91610040565b6001600160a01b0316608052610070565b60006020828403121561005257600080fd5b81516001600160a01b038116811461006957600080fd5b9392505050565b60805161130461009160003960008181604b01526102a801526113046000f3fe608060405234801561001057600080fd5b50600436106100415760003560e01c80637f94dd3314610046578063d73792a914610097578063dcfc73ca146100af575b600080fd5b61006d7f000000000000000000000000000000000000000000000000000000000000000081565b60405173ffffffffffffffffffffffffffffffffffffffff90911681526020015b60405180910390f35b6100a1620f424081565b60405190815260200161008e565b6100c26100bd366004610c71565b6100c4565b005b73ffffffffffffffffffffffffffffffffffffffff8116610146576040517f08c379a000000000000000000000000000000000000000000000000000000000815260206004820152601b60248201527f4f4257463a20496e76616c69642066656520726563697069656e74000000000060448201526064015b60405180910390fd5b600061016c620f4240610166858960c001516101ae90919063ffffffff16565b906101c1565b9050801561019b57602086015161019b9073ffffffffffffffffffffffffffffffffffffffff163384846101cd565b6101a6868686610268565b505050505050565b60006101ba8284610eae565b9392505050565b60006101ba8284610eeb565b6040805173ffffffffffffffffffffffffffffffffffffffff85811660248301528416604482015260648082018490528251808303909101815260849091019091526020810180517bffffffffffffffffffffffffffffffffffffffffffffffffffffffff167f23b872dd00000000000000000000000000000000000000000000000000000000179052610262908590610428565b50505050565b6040517ffa1cb9f200000000000000000000000000000000000000000000000000000000815260009073ffffffffffffffffffffffffffffffffffffffff7f0000000000000000000000000000000000000000000000000000000000000000169063fa1cb9f2906102dd90879060040161114b565b602060405180830381865afa1580156102fa573d6000803e3d6000fd5b505050506040513d601f19601f8201168201806040525081019061031e919061115e565b905061036584606001518285858080601f01602080910402602001604051908101604052809392919081815260200183838082843760009201919091525061053992505050565b6103cb576040517f08c379a000000000000000000000000000000000000000000000000000000000815260206004820152601160248201527f4f423a20626164207369676e6174757265000000000000000000000000000000604482015260640161013d565b80846060015173ffffffffffffffffffffffffffffffffffffffff167fc1624a2e52e06ce4ecf1f54498e7975056bb10117cd7fd48b6277fe4aa14ee1d86868660405161041a93929190611177565b60405180910390a350505050565b600061048a826040518060400160405280602081526020017f5361666545524332303a206c6f772d6c6576656c2063616c6c206661696c65648152508573ffffffffffffffffffffffffffffffffffffffff166107289092919063ffffffff16565b80519091501561053457808060200190518101906104a891906111db565b610534576040517f08c379a000000000000000000000000000000000000000000000000000000000815260206004820152602a60248201527f5361666545524332303a204552433230206f7065726174696f6e20646964206e60448201527f6f74207375636365656400000000000000000000000000000000000000000000606482015260840161013d565b505050565b6000806000610548858561073f565b90925090506000816004811115610561576105616111fd565b14801561059957508573ffffffffffffffffffffffffffffffffffffffff168273ffffffffffffffffffffffffffffffffffffffff16145b156105a9576001925050506101ba565b6000808773ffffffffffffffffffffffffffffffffffffffff16631626ba7e60e01b88886040516024016105de92919061122c565b604080517fffffffffffffffffffffffffffffffffffffffffffffffffffffffffffffffe08184030181529181526020820180517bffffffffffffffffffffffffffffffffffffffffffffffffffffffff167fffffffff000000000000000000000000000000000000000000000000000000009094169390931790925290516106679190611245565b600060405180830381855afa9150503d80600081146106a2576040519150601f19603f3d011682016040523d82523d6000602084013e6106a7565b606091505b50915091508180156106ba575080516020145b801561071c575080517f1626ba7e00000000000000000000000000000000000000000000000000000000906106f89083016020908101908401611261565b7fffffffff0000000000000000000000000000000000000000000000000000000016145b98975050505050505050565b606061073784846000856107af565b949350505050565b6000808251604114156107765760208301516040840151606085015160001a61076a87828585610945565b945094505050506107a8565b8251604014156107a05760208301516040840151610795868383610a5d565b9350935050506107a8565b506000905060025b9250929050565b606082471015610841576040517f08c379a000000000000000000000000000000000000000000000000000000000815260206004820152602660248201527f416464726573733a20696e73756666696369656e742062616c616e636520666f60448201527f722063616c6c0000000000000000000000000000000000000000000000000000606482015260840161013d565b73ffffffffffffffffffffffffffffffffffffffff85163b6108bf576040517f08c379a000000000000000000000000000000000000000000000000000000000815260206004820152601d60248201527f416464726573733a2063616c6c20746f206e6f6e2d636f6e7472616374000000604482015260640161013d565b6000808673ffffffffffffffffffffffffffffffffffffffff1685876040516108e89190611245565b60006040518083038185875af1925050503d8060008114610925576040519150601f19603f3d011682016040523d82523d6000602084013e61092a565b606091505b509150915061093a828286610aaf565b979650505050505050565b6000807f7fffffffffffffffffffffffffffffff5d576e7357a4501ddfe92f46681b20a083111561097c5750600090506003610a54565b8460ff16601b1415801561099457508460ff16601c14155b156109a55750600090506004610a54565b6040805160008082526020820180845289905260ff881692820192909252606081018690526080810185905260019060a0016020604051602081039080840390855afa1580156109f9573d6000803e3d6000fd5b50506040517fffffffffffffffffffffffffffffffffffffffffffffffffffffffffffffffe0015191505073ffffffffffffffffffffffffffffffffffffffff8116610a4d57600060019250925050610a54565b9150600090505b94509492505050565b6000807f7fffffffffffffffffffffffffffffffffffffffffffffffffffffffffffffff831681610a9360ff86901c601b6112a3565b9050610aa187828885610945565b935093505050935093915050565b60608315610abe5750816101ba565b825115610ace5782518084602001fd5b816040517f08c379a000000000000000000000000000000000000000000000000000000000815260040161013d91906112bb565b7f4e487b7100000000000000000000000000000000000000000000000000000000600052604160045260246000fd5b6040516101e0810167ffffffffffffffff81118282101715610b5557610b55610b02565b60405290565b803573ffffffffffffffffffffffffffffffffffffffff81168114610b7f57600080fd5b919050565b600082601f830112610b9557600080fd5b813567ffffffffffffffff80821115610bb057610bb0610b02565b604051601f83017fffffffffffffffffffffffffffffffffffffffffffffffffffffffffffffffe0908116603f01168101908282118183101715610bf657610bf6610b02565b81604052838152866020858801011115610c0f57600080fd5b836020870160208301376000602085830101528094505050505092915050565b60008083601f840112610c4157600080fd5b50813567ffffffffffffffff811115610c5957600080fd5b6020830191508360208285010111156107a857600080fd5b600080600080600060808688031215610c8957600080fd5b853567ffffffffffffffff80821115610ca157600080fd5b908701906101e0828a031215610cb657600080fd5b610cbe610b31565b82358152610cce60208401610b5b565b6020820152610cdf60408401610b5b565b6040820152610cf060608401610b5b565b6060820152610d0160808401610b5b565b6080820152610d1260a08401610b5b565b60a082015260c083013560c082015260e083013560e08201526101008084013583811115610d3f57600080fd5b610d4b8c828701610b84565b8284015250506101208084013583811115610d6557600080fd5b610d718c828701610b84565b8284015250506101408084013583811115610d8b57600080fd5b610d978c828701610b84565b8284015250506101608084013583811115610db157600080fd5b610dbd8c828701610b84565b8284015250506101808084013583811115610dd757600080fd5b610de38c828701610b84565b8284015250506101a08084013583811115610dfd57600080fd5b610e098c828701610b84565b8284015250506101c08084013583811115610e2357600080fd5b610e2f8c828701610b84565b828401525050809750506020880135915080821115610e4d57600080fd5b50610e5a88828901610c2f565b90955093505060408601359150610e7360608701610b5b565b90509295509295909350565b7f4e487b7100000000000000000000000000000000000000000000000000000000600052601160045260246000fd5b6000817fffffffffffffffffffffffffffffffffffffffffffffffffffffffffffffffff0483118215151615610ee657610ee6610e7f565b500290565b600082610f21577f4e487b7100000000000000000000000000000000000000000000000000000000600052601260045260246000fd5b500490565b60005b83811015610f41578181015183820152602001610f29565b838111156102625750506000910152565b60008151808452610f6a816020860160208601610f26565b601f017fffffffffffffffffffffffffffffffffffffffffffffffffffffffffffffffe0169290920160200192915050565b60006101e0825184526020830151610fcc602086018273ffffffffffffffffffffffffffffffffffffffff169052565b506040830151610ff4604086018273ffffffffffffffffffffffffffffffffffffffff169052565b50606083015161101c606086018273ffffffffffffffffffffffffffffffffffffffff169052565b506080830151611044608086018273ffffffffffffffffffffffffffffffffffffffff169052565b5060a083015161106c60a086018273ffffffffffffffffffffffffffffffffffffffff169052565b5060c083015160c085015260e083015160e085015261010080840151828287015261109983870182610f52565b9250505061012080840151858303828701526110b58382610f52565b9250505061014080840151858303828701526110d18382610f52565b9250505061016080840151858303828701526110ed8382610f52565b9250505061018080840151858303828701526111098382610f52565b925050506101a080840151858303828701526111258382610f52565b925050506101c080840151858303828701526111418382610f52565b9695505050505050565b6020815260006101ba6020830184610f9c565b60006020828403121561117057600080fd5b5051919050565b60408152600061118a6040830186610f9c565b82810360208401528381528385602083013760006020858301015260207fffffffffffffffffffffffffffffffffffffffffffffffffffffffffffffffe0601f860116820101915050949350505050565b6000602082840312156111ed57600080fd5b815180151581146101ba57600080fd5b7f4e487b7100000000000000000000000000000000000000000000000000000000600052602160045260246000fd5b8281526040602082015260006107376040830184610f52565b60008251611257818460208701610f26565b9190910192915050565b60006020828403121561127357600080fd5b81517fffffffff00000000000000000000000000000000000000000000000000000000811681146101ba57600080fd5b600082198211156112b6576112b6610e7f565b500190565b6020815260006101ba6020830184610f5256fea2646970667358221220e673f7f09fcddc2c60e27e489e8a0e225494b3dcaf878bddce54a04e947eee8264736f6c634300080b0033",
  "devdoc": {
    "kind": "dev",
    "methods": {},
    "title": "Public order book with fees",
    "version": 1
  },
  "userdoc": {
    "events": {
      "OrderBroadcasted(address,bytes32,(uint256,address,address,address,address,address,uint256,uint256,bytes,bytes,bytes,bytes,bytes,bytes,bytes),bytes)": {
        "notice": "Emitted every time an order is broadcasted"
      }
    },
    "kind": "user",
    "methods": {
      "FEE_DENOMINATOR()": {
        "notice": "Denominator for the fee"
      },
      "limitOrderProtocol()": {
        "notice": "The limit order protocol this orderbook references"
      }
    },
    "version": 1
  },
  "storageLayout": {
    "storage": [],
    "types": null
  }
}