{
  "address": "0x567a5B666b2003C12995Df35Cee9277036aF95cc",
  "abi": [
    {
      "inputs": [
        {
          "internalType": "contract ILimitOrderProtocol",
          "name": "_limitOrderProtocol",
          "type": "address"
        },
        {
          "internalType": "uint256",
          "name": "_fee",
          "type": "uint256"
        },
        {
          "internalType": "address",
          "name": "_feeRecipient",
          "type": "address"
        }
      ],
      "stateMutability": "nonpayable",
      "type": "constructor"
    },
    {
      "anonymous": false,
      "inputs": [
        {
          "indexed": false,
          "internalType": "uint256",
          "name": "oldFee",
          "type": "uint256"
        },
        {
          "indexed": false,
          "internalType": "uint256",
          "name": "newFee",
          "type": "uint256"
        }
      ],
      "name": "FeeChanged",
      "type": "event"
    },
    {
      "anonymous": false,
      "inputs": [
        {
          "indexed": false,
          "internalType": "address",
          "name": "oldFee",
          "type": "address"
        },
        {
          "indexed": false,
          "internalType": "address",
          "name": "newFee",
          "type": "address"
        }
      ],
      "name": "FeeRecipientChanged",
      "type": "event"
    },
    {
      "anonymous": false,
      "inputs": [
        {
          "indexed": true,
          "internalType": "address",
          "name": "maker",
          "type": "address"
        },
        {
          "indexed": false,
          "internalType": "bytes32",
          "name": "orderHash",
          "type": "bytes32"
        }
      ],
      "name": "OrderBroadcasted",
      "type": "event"
    },
    {
      "anonymous": false,
      "inputs": [
        {
          "indexed": true,
          "internalType": "address",
          "name": "previousOwner",
          "type": "address"
        },
        {
          "indexed": true,
          "internalType": "address",
          "name": "newOwner",
          "type": "address"
        }
      ],
      "name": "OwnershipTransferred",
      "type": "event"
    },
    {
      "inputs": [],
      "name": "BPS",
      "outputs": [
        {
          "internalType": "uint256",
          "name": "",
          "type": "uint256"
        }
      ],
      "stateMutability": "view",
      "type": "function"
    },
    {
      "inputs": [
        {
          "components": [
            {
              "internalType": "uint256",
              "name": "salt",
              "type": "uint256"
            },
            {
              "internalType": "address",
              "name": "makerAsset",
              "type": "address"
            },
            {
              "internalType": "address",
              "name": "takerAsset",
              "type": "address"
            },
            {
              "internalType": "address",
              "name": "maker",
              "type": "address"
            },
            {
              "internalType": "address",
              "name": "receiver",
              "type": "address"
            },
            {
              "internalType": "address",
              "name": "allowedSender",
              "type": "address"
            },
            {
              "internalType": "uint256",
              "name": "makingAmount",
              "type": "uint256"
            },
            {
              "internalType": "uint256",
              "name": "takingAmount",
              "type": "uint256"
            },
            {
              "internalType": "bytes",
              "name": "makerAssetData",
              "type": "bytes"
            },
            {
              "internalType": "bytes",
              "name": "takerAssetData",
              "type": "bytes"
            },
            {
              "internalType": "bytes",
              "name": "getMakerAmount",
              "type": "bytes"
            },
            {
              "internalType": "bytes",
              "name": "getTakerAmount",
              "type": "bytes"
            },
            {
              "internalType": "bytes",
              "name": "predicate",
              "type": "bytes"
            },
            {
              "internalType": "bytes",
              "name": "permit",
              "type": "bytes"
            },
            {
              "internalType": "bytes",
              "name": "interaction",
              "type": "bytes"
            }
          ],
          "internalType": "struct ILimitOrderProtocol.Order",
          "name": "_order",
          "type": "tuple"
        },
        {
          "internalType": "bytes",
          "name": "_signature",
          "type": "bytes"
        }
      ],
      "name": "broadcastOrder",
      "outputs": [],
      "stateMutability": "nonpayable",
      "type": "function"
    },
    {
      "inputs": [
        {
          "internalType": "uint256",
          "name": "_fee",
          "type": "uint256"
        }
      ],
      "name": "changeFee",
      "outputs": [],
      "stateMutability": "nonpayable",
      "type": "function"
    },
    {
      "inputs": [
        {
          "internalType": "address",
          "name": "_feeRecipient",
          "type": "address"
        }
      ],
      "name": "changeFeeRecipient",
      "outputs": [],
      "stateMutability": "nonpayable",
      "type": "function"
    },
    {
      "inputs": [],
      "name": "fee",
      "outputs": [
        {
          "internalType": "uint256",
          "name": "",
          "type": "uint256"
        }
      ],
      "stateMutability": "view",
      "type": "function"
    },
    {
      "inputs": [],
      "name": "feeRecipient",
      "outputs": [
        {
          "internalType": "address",
          "name": "",
          "type": "address"
        }
      ],
      "stateMutability": "view",
      "type": "function"
    },
    {
      "inputs": [],
      "name": "limitOrderProtocol",
      "outputs": [
        {
          "internalType": "contract ILimitOrderProtocol",
          "name": "",
          "type": "address"
        }
      ],
      "stateMutability": "view",
      "type": "function"
    },
    {
      "inputs": [
        {
          "internalType": "bytes32",
          "name": "_orderHash",
          "type": "bytes32"
        }
      ],
      "name": "orders",
      "outputs": [
        {
          "components": [
            {
              "internalType": "uint256",
              "name": "salt",
              "type": "uint256"
            },
            {
              "internalType": "address",
              "name": "makerAsset",
              "type": "address"
            },
            {
              "internalType": "address",
              "name": "takerAsset",
              "type": "address"
            },
            {
              "internalType": "address",
              "name": "maker",
              "type": "address"
            },
            {
              "internalType": "address",
              "name": "receiver",
              "type": "address"
            },
            {
              "internalType": "address",
              "name": "allowedSender",
              "type": "address"
            },
            {
              "internalType": "uint256",
              "name": "makingAmount",
              "type": "uint256"
            },
            {
              "internalType": "uint256",
              "name": "takingAmount",
              "type": "uint256"
            },
            {
              "internalType": "bytes",
              "name": "makerAssetData",
              "type": "bytes"
            },
            {
              "internalType": "bytes",
              "name": "takerAssetData",
              "type": "bytes"
            },
            {
              "internalType": "bytes",
              "name": "getMakerAmount",
              "type": "bytes"
            },
            {
              "internalType": "bytes",
              "name": "getTakerAmount",
              "type": "bytes"
            },
            {
              "internalType": "bytes",
              "name": "predicate",
              "type": "bytes"
            },
            {
              "internalType": "bytes",
              "name": "permit",
              "type": "bytes"
            },
            {
              "internalType": "bytes",
              "name": "interaction",
              "type": "bytes"
            }
          ],
          "internalType": "struct ILimitOrderProtocol.Order",
          "name": "order",
          "type": "tuple"
        }
      ],
      "stateMutability": "view",
      "type": "function"
    },
    {
      "inputs": [],
      "name": "owner",
      "outputs": [
        {
          "internalType": "address",
          "name": "",
          "type": "address"
        }
      ],
      "stateMutability": "view",
      "type": "function"
    },
    {
      "inputs": [],
      "name": "renounceOwnership",
      "outputs": [],
      "stateMutability": "nonpayable",
      "type": "function"
    },
    {
      "inputs": [
        {
          "internalType": "bytes32",
          "name": "",
          "type": "bytes32"
        }
      ],
      "name": "signatures",
      "outputs": [
        {
          "internalType": "bytes",
          "name": "",
          "type": "bytes"
        }
      ],
      "stateMutability": "view",
      "type": "function"
    },
    {
      "inputs": [
        {
          "internalType": "address",
          "name": "newOwner",
          "type": "address"
        }
      ],
      "name": "transferOwnership",
      "outputs": [],
      "stateMutability": "nonpayable",
      "type": "function"
    }
  ],
  "transactionHash": "0xc6b97b392c6bd0acf92a6c3d78531b037548a2c1650cb613a1f26522d5551b92",
  "args": [
    "0xC017f9Df33d6b930332bddd6260D0f75368f969B",
    5,
    "0x97A9681612482A22b7877afbF8430EDC76159Cae"
  ],
  "numDeployments": 1,
  "solcInputHash": "2039b5efc56948ada99f652c7a8dc833",
  "bytecode": "0x60a06040523480156200001157600080fd5b5060405162002361380380620023618339810160408190526200003491620000e3565b6001600160a01b0383166080526200004c3362000078565b601191909155601280546001600160a01b0319166001600160a01b03909216919091179055506200012b565b601080546001600160a01b038381166001600160a01b0319831681179093556040519116919082907f8be0079c531659141344cd1fd0a4f28419497f9722a3daafe3b4186f6b6457e090600090a35050565b6001600160a01b0381168114620000e057600080fd5b50565b600080600060608486031215620000f957600080fd5b83516200010681620000ca565b6020850151604086015191945092506200012081620000ca565b809150509250925092565b6080516122136200014e600039600081816101a60152610e6601526122136000f3fe608060405234801561001057600080fd5b50600436106100d45760003560e01c80637bea11b8116100815780639c3f1e901161005b5780639c3f1e90146101e6578063ddca3f4314610206578063f2fde38b1461020f57600080fd5b80637bea11b81461018e5780637f94dd33146101a15780638da5cb5b146101c857600080fd5b806346904840116100b2578063469048401461012e5780636a1db1bf14610173578063715018a61461018657600080fd5b806323604071146100d95780632422224e146100ee578063249d39e914610117575b600080fd5b6100ec6100e7366004611a1e565b610222565b005b6101016100fc366004611a39565b610343565b60405161010e9190611ac8565b60405180910390f35b6101206103e881565b60405190815260200161010e565b60125461014e9073ffffffffffffffffffffffffffffffffffffffff1681565b60405173ffffffffffffffffffffffffffffffffffffffff909116815260200161010e565b6100ec610181366004611a39565b6103dd565b6100ec61049f565b6100ec61019c366004611c21565b61052c565b61014e7f000000000000000000000000000000000000000000000000000000000000000081565b60105473ffffffffffffffffffffffffffffffffffffffff1661014e565b6101f96101f4366004611a39565b6105c9565b60405161010e9190611e14565b61012060115481565b6100ec61021d366004611a1e565b610bc5565b60105473ffffffffffffffffffffffffffffffffffffffff1633146102a8576040517f08c379a000000000000000000000000000000000000000000000000000000000815260206004820181905260248201527f4f776e61626c653a2063616c6c6572206973206e6f7420746865206f776e657260448201526064015b60405180910390fd5b6012546040805173ffffffffffffffffffffffffffffffffffffffff928316815291831660208301527f0bc21fe5c3ab742ff1d15b5c4477ffbacf1167e618228078fa625edebe7f331d910160405180910390a1601280547fffffffffffffffffffffffff00000000000000000000000000000000000000001673ffffffffffffffffffffffffffffffffffffffff92909216919091179055565b6000602081905290815260409020805461035c90611fe9565b80601f016020809104026020016040519081016040528092919081815260200182805461038890611fe9565b80156103d55780601f106103aa576101008083540402835291602001916103d5565b820191906000526020600020905b8154815290600101906020018083116103b857829003601f168201915b505050505081565b60105473ffffffffffffffffffffffffffffffffffffffff16331461045e576040517f08c379a000000000000000000000000000000000000000000000000000000000815260206004820181905260248201527f4f776e61626c653a2063616c6c6572206973206e6f7420746865206f776e6572604482015260640161029f565b60115460408051918252602082018390527f5fc463da23c1b063e66f9e352006a7fbe8db7223c455dc429e881a2dfe2f94f1910160405180910390a1601155565b60105473ffffffffffffffffffffffffffffffffffffffff163314610520576040517f08c379a000000000000000000000000000000000000000000000000000000000815260206004820181905260248201527f4f776e61626c653a2063616c6c6572206973206e6f7420746865206f776e6572604482015260640161029f565b61052a6000610cf5565b565b60125473ffffffffffffffffffffffffffffffffffffffff161580159061055557506000601154115b156105b95760006105816103e861057b8660c00151601154610d6c90919063ffffffff16565b90610d7f565b905080156105b75760125460208501516105b79173ffffffffffffffffffffffffffffffffffffffff9182169133911684610d8b565b505b6105c4838383610e26565b505050565b6106b0604051806101e0016040528060008152602001600073ffffffffffffffffffffffffffffffffffffffff168152602001600073ffffffffffffffffffffffffffffffffffffffff168152602001600073ffffffffffffffffffffffffffffffffffffffff168152602001600073ffffffffffffffffffffffffffffffffffffffff168152602001600073ffffffffffffffffffffffffffffffffffffffff1681526020016000815260200160008152602001606081526020016060815260200160608152602001606081526020016060815260200160608152602001606081525090565b604080516101e081018252600084815260016020908152838220548352858252600281528382205473ffffffffffffffffffffffffffffffffffffffff90811682850152868352600382528483205481168486015286835260048252848320548116606085015286835260058252848320548116608085015286835260068252848320541660a0840152858252600781528382205460c0840152858252600881528382205460e0840152858252600990529190912080546101008301919061077790611fe9565b80601f01602080910402602001604051908101604052809291908181526020018280546107a390611fe9565b80156107f05780601f106107c5576101008083540402835291602001916107f0565b820191906000526020600020905b8154815290600101906020018083116107d357829003601f168201915b50505050508152602001600a6000858152602001908152602001600020805461081890611fe9565b80601f016020809104026020016040519081016040528092919081815260200182805461084490611fe9565b80156108915780601f1061086657610100808354040283529160200191610891565b820191906000526020600020905b81548152906001019060200180831161087457829003601f168201915b50505050508152602001600b600085815260200190815260200160002080546108b990611fe9565b80601f01602080910402602001604051908101604052809291908181526020018280546108e590611fe9565b80156109325780601f1061090757610100808354040283529160200191610932565b820191906000526020600020905b81548152906001019060200180831161091557829003601f168201915b50505050508152602001600c6000858152602001908152602001600020805461095a90611fe9565b80601f016020809104026020016040519081016040528092919081815260200182805461098690611fe9565b80156109d35780601f106109a8576101008083540402835291602001916109d3565b820191906000526020600020905b8154815290600101906020018083116109b657829003601f168201915b50505050508152602001600d600085815260200190815260200160002080546109fb90611fe9565b80601f0160208091040260200160405190810160405280929190818152602001828054610a2790611fe9565b8015610a745780601f10610a4957610100808354040283529160200191610a74565b820191906000526020600020905b815481529060010190602001808311610a5757829003601f168201915b50505050508152602001600e60008581526020019081526020016000208054610a9c90611fe9565b80601f0160208091040260200160405190810160405280929190818152602001828054610ac890611fe9565b8015610b155780601f10610aea57610100808354040283529160200191610b15565b820191906000526020600020905b815481529060010190602001808311610af857829003601f168201915b50505050508152602001600f60008581526020019081526020016000208054610b3d90611fe9565b80601f0160208091040260200160405190810160405280929190818152602001828054610b6990611fe9565b8015610bb65780601f10610b8b57610100808354040283529160200191610bb6565b820191906000526020600020905b815481529060010190602001808311610b9957829003601f168201915b50505050508152509050919050565b60105473ffffffffffffffffffffffffffffffffffffffff163314610c46576040517f08c379a000000000000000000000000000000000000000000000000000000000815260206004820181905260248201527f4f776e61626c653a2063616c6c6572206973206e6f7420746865206f776e6572604482015260640161029f565b73ffffffffffffffffffffffffffffffffffffffff8116610ce9576040517f08c379a000000000000000000000000000000000000000000000000000000000815260206004820152602660248201527f4f776e61626c653a206e6577206f776e657220697320746865207a65726f206160448201527f6464726573730000000000000000000000000000000000000000000000000000606482015260840161029f565b610cf281610cf5565b50565b6010805473ffffffffffffffffffffffffffffffffffffffff8381167fffffffffffffffffffffffff0000000000000000000000000000000000000000831681179093556040519116919082907f8be0079c531659141344cd1fd0a4f28419497f9722a3daafe3b4186f6b6457e090600090a35050565b6000610d78828461206c565b9392505050565b6000610d7882846120a9565b6040805173ffffffffffffffffffffffffffffffffffffffff85811660248301528416604482015260648082018490528251808303909101815260849091019091526020810180517bffffffffffffffffffffffffffffffffffffffffffffffffffffffff167f23b872dd00000000000000000000000000000000000000000000000000000000179052610e209085906111f5565b50505050565b6040517ffa1cb9f200000000000000000000000000000000000000000000000000000000815260009073ffffffffffffffffffffffffffffffffffffffff7f0000000000000000000000000000000000000000000000000000000000000000169063fa1cb9f290610e9b908790600401611e14565b602060405180830381865afa158015610eb8573d6000803e3d6000fd5b505050506040513d601f19601f82011682018060405250810190610edc91906120e4565b9050610f2384606001518285858080601f01602080910402602001604051908101604052809392919081815260200183838082843760009201919091525061130192505050565b610f89576040517f08c379a000000000000000000000000000000000000000000000000000000000815260206004820152601160248201527f4f423a20626164207369676e6174757265000000000000000000000000000000604482015260640161029f565b8351600082815260016020908152604080832093909355808701516002825283832080547fffffffffffffffffffffffff000000000000000000000000000000000000000090811673ffffffffffffffffffffffffffffffffffffffff93841617909155848901516003845285852080548316918416919091179055606089015160048452858520805483169184169190911790556080890151600584528585208054831691841691909117905560a0890151600684528585208054909216921691909117905560c0870151600782528383205560e087015160088252838320556101008701516009825292909120825161108a93919291909101906118ca565b506101208401516000828152600a6020908152604090912082516110b3939192909101906118ca565b506101408401516000828152600b6020908152604090912082516110dc939192909101906118ca565b506101608401516000828152600c602090815260409091208251611105939192909101906118ca565b506101808401516000828152600d60209081526040909120825161112e939192909101906118ca565b506101a08401516000828152600e602090815260409091208251611157939192909101906118ca565b506101c08401516000828152600f602090815260409091208251611180939192909101906118ca565b50600081815260208190526040902061119a90848461194e565b50836060015173ffffffffffffffffffffffffffffffffffffffff167fdf482aa70d52efefab20dbfaf9cc2b0cb880c75e72e26972c9c5d29c2c02f563826040516111e791815260200190565b60405180910390a250505050565b6000611257826040518060400160405280602081526020017f5361666545524332303a206c6f772d6c6576656c2063616c6c206661696c65648152508573ffffffffffffffffffffffffffffffffffffffff166114f09092919063ffffffff16565b8051909150156105c4578080602001905181019061127591906120fd565b6105c4576040517f08c379a000000000000000000000000000000000000000000000000000000000815260206004820152602a60248201527f5361666545524332303a204552433230206f7065726174696f6e20646964206e60448201527f6f74207375636365656400000000000000000000000000000000000000000000606482015260840161029f565b60008060006113108585611507565b909250905060008160048111156113295761132961211f565b14801561136157508573ffffffffffffffffffffffffffffffffffffffff168273ffffffffffffffffffffffffffffffffffffffff16145b1561137157600192505050610d78565b6000808773ffffffffffffffffffffffffffffffffffffffff16631626ba7e60e01b88886040516024016113a692919061214e565b604080517fffffffffffffffffffffffffffffffffffffffffffffffffffffffffffffffe08184030181529181526020820180517bffffffffffffffffffffffffffffffffffffffffffffffffffffffff167fffffffff0000000000000000000000000000000000000000000000000000000090941693909317909252905161142f9190612167565b600060405180830381855afa9150503d806000811461146a576040519150601f19603f3d011682016040523d82523d6000602084013e61146f565b606091505b5091509150818015611482575080516020145b80156114e4575080517f1626ba7e00000000000000000000000000000000000000000000000000000000906114c09083016020908101908401612183565b7fffffffff0000000000000000000000000000000000000000000000000000000016145b98975050505050505050565b60606114ff8484600085611577565b949350505050565b60008082516041141561153e5760208301516040840151606085015160001a6115328782858561170d565b94509450505050611570565b825160401415611568576020830151604084015161155d868383611825565b935093505050611570565b506000905060025b9250929050565b606082471015611609576040517f08c379a000000000000000000000000000000000000000000000000000000000815260206004820152602660248201527f416464726573733a20696e73756666696369656e742062616c616e636520666f60448201527f722063616c6c0000000000000000000000000000000000000000000000000000606482015260840161029f565b73ffffffffffffffffffffffffffffffffffffffff85163b611687576040517f08c379a000000000000000000000000000000000000000000000000000000000815260206004820152601d60248201527f416464726573733a2063616c6c20746f206e6f6e2d636f6e7472616374000000604482015260640161029f565b6000808673ffffffffffffffffffffffffffffffffffffffff1685876040516116b09190612167565b60006040518083038185875af1925050503d80600081146116ed576040519150601f19603f3d011682016040523d82523d6000602084013e6116f2565b606091505b5091509150611702828286611877565b979650505050505050565b6000807f7fffffffffffffffffffffffffffffff5d576e7357a4501ddfe92f46681b20a0831115611744575060009050600361181c565b8460ff16601b1415801561175c57508460ff16601c14155b1561176d575060009050600461181c565b6040805160008082526020820180845289905260ff881692820192909252606081018690526080810185905260019060a0016020604051602081039080840390855afa1580156117c1573d6000803e3d6000fd5b50506040517fffffffffffffffffffffffffffffffffffffffffffffffffffffffffffffffe0015191505073ffffffffffffffffffffffffffffffffffffffff81166118155760006001925092505061181c565b9150600090505b94509492505050565b6000807f7fffffffffffffffffffffffffffffffffffffffffffffffffffffffffffffff83168161185b60ff86901c601b6121c5565b90506118698782888561170d565b935093505050935093915050565b60608315611886575081610d78565b8251156118965782518084602001fd5b816040517f08c379a000000000000000000000000000000000000000000000000000000000815260040161029f9190611ac8565b8280546118d690611fe9565b90600052602060002090601f0160209004810192826118f8576000855561193e565b82601f1061191157805160ff191683800117855561193e565b8280016001018555821561193e579182015b8281111561193e578251825591602001919060010190611923565b5061194a9291506119e0565b5090565b82805461195a90611fe9565b90600052602060002090601f01602090048101928261197c576000855561193e565b82601f106119b3578280017fffffffffffffffffffffffffffffffffffffffffffffffffffffffffffffff0082351617855561193e565b8280016001018555821561193e579182015b8281111561193e5782358255916020019190600101906119c5565b5b8082111561194a57600081556001016119e1565b803573ffffffffffffffffffffffffffffffffffffffff81168114611a1957600080fd5b919050565b600060208284031215611a3057600080fd5b610d78826119f5565b600060208284031215611a4b57600080fd5b5035919050565b60005b83811015611a6d578181015183820152602001611a55565b83811115610e205750506000910152565b60008151808452611a96816020860160208601611a52565b601f017fffffffffffffffffffffffffffffffffffffffffffffffffffffffffffffffe0169290920160200192915050565b602081526000610d786020830184611a7e565b7f4e487b7100000000000000000000000000000000000000000000000000000000600052604160045260246000fd5b6040516101e0810167ffffffffffffffff81118282101715611b2e57611b2e611adb565b60405290565b600082601f830112611b4557600080fd5b813567ffffffffffffffff80821115611b6057611b60611adb565b604051601f83017fffffffffffffffffffffffffffffffffffffffffffffffffffffffffffffffe0908116603f01168101908282118183101715611ba657611ba6611adb565b81604052838152866020858801011115611bbf57600080fd5b836020870160208301376000602085830101528094505050505092915050565b60008083601f840112611bf157600080fd5b50813567ffffffffffffffff811115611c0957600080fd5b60208301915083602082850101111561157057600080fd5b600080600060408486031215611c3657600080fd5b833567ffffffffffffffff80821115611c4e57600080fd5b908501906101e08288031215611c6357600080fd5b611c6b611b0a565b82358152611c7b602084016119f5565b6020820152611c8c604084016119f5565b6040820152611c9d606084016119f5565b6060820152611cae608084016119f5565b6080820152611cbf60a084016119f5565b60a082015260c083013560c082015260e083013560e08201526101008084013583811115611cec57600080fd5b611cf88a828701611b34565b8284015250506101208084013583811115611d1257600080fd5b611d1e8a828701611b34565b8284015250506101408084013583811115611d3857600080fd5b611d448a828701611b34565b8284015250506101608084013583811115611d5e57600080fd5b611d6a8a828701611b34565b8284015250506101808084013583811115611d8457600080fd5b611d908a828701611b34565b8284015250506101a08084013583811115611daa57600080fd5b611db68a828701611b34565b8284015250506101c08084013583811115611dd057600080fd5b611ddc8a828701611b34565b828401525050809550506020860135915080821115611dfa57600080fd5b50611e0786828701611bdf565b9497909650939450505050565b602081528151602082015260006020830151611e48604084018273ffffffffffffffffffffffffffffffffffffffff169052565b50604083015173ffffffffffffffffffffffffffffffffffffffff8116606084015250606083015173ffffffffffffffffffffffffffffffffffffffff8116608084015250608083015173ffffffffffffffffffffffffffffffffffffffff811660a08401525060a083015173ffffffffffffffffffffffffffffffffffffffff811660c08401525060c083015160e083015260e08301516101008181850152808501519150506101e06101208181860152611f08610200860184611a7e565b92508086015190507fffffffffffffffffffffffffffffffffffffffffffffffffffffffffffffffe0610140818786030181880152611f478584611a7e565b945080880151925050610160818786030181880152611f668584611a7e565b945080880151925050610180818786030181880152611f858584611a7e565b9450808801519250506101a0818786030181880152611fa48584611a7e565b9450808801519250506101c0818786030181880152611fc38584611a7e565b908801518782039092018488015293509050611fdf8382611a7e565b9695505050505050565b600181811c90821680611ffd57607f821691505b60208210811415612037577f4e487b7100000000000000000000000000000000000000000000000000000000600052602260045260246000fd5b50919050565b7f4e487b7100000000000000000000000000000000000000000000000000000000600052601160045260246000fd5b6000817fffffffffffffffffffffffffffffffffffffffffffffffffffffffffffffffff04831182151516156120a4576120a461203d565b500290565b6000826120df577f4e487b7100000000000000000000000000000000000000000000000000000000600052601260045260246000fd5b500490565b6000602082840312156120f657600080fd5b5051919050565b60006020828403121561210f57600080fd5b81518015158114610d7857600080fd5b7f4e487b7100000000000000000000000000000000000000000000000000000000600052602160045260246000fd5b8281526040602082015260006114ff6040830184611a7e565b60008251612179818460208701611a52565b9190910192915050565b60006020828403121561219557600080fd5b81517fffffffff0000000000000000000000000000000000000000000000000000000081168114610d7857600080fd5b600082198211156121d8576121d861203d565b50019056fea2646970667358221220d429af692abe7c69620d687166eed3a1b320f245a216eb37e23e00fd3a6c436664736f6c634300080b0033",
  "devdoc": {
    "kind": "dev",
    "methods": {
      "broadcastOrder((uint256,address,address,address,address,address,uint256,uint256,bytes,bytes,bytes,bytes,bytes,bytes,bytes),bytes)": {
        "params": {
          "_order": "The order to broadcast",
          "_signature": "The order's signature. Should be signed by _order.maker"
        }
      },
      "orders(bytes32)": {
        "params": {
          "_orderHash": "An order's hash to fetch the underlying order"
        },
        "returns": {
          "order": "The order that corresponds to the _orderHash"
        }
      },
      "owner()": {
        "details": "Returns the address of the current owner."
      },
      "renounceOwnership()": {
        "details": "Leaves the contract without owner. It will not be possible to call `onlyOwner` functions anymore. Can only be called by the current owner. NOTE: Renouncing ownership will leave the contract without an owner, thereby removing any functionality that is only available to the owner."
      },
      "transferOwnership(address)": {
        "details": "Transfers ownership of the contract to a new account (`newOwner`). Can only be called by the current owner."
      }
    },
    "title": "Public Ubeswap order book",
    "version": 1
  },
  "userdoc": {
    "events": {
      "OrderBroadcasted(address,bytes32)": {
        "notice": "Emitted every time an order is broadcasted"
      }
    },
    "kind": "user",
    "methods": {
      "BPS()": {
        "notice": "Denominator for bps"
      },
      "broadcastOrder((uint256,address,address,address,address,address,uint256,uint256,bytes,bytes,bytes,bytes,bytes,bytes,bytes),bytes)": {
        "notice": "Broadcast a limit order with its signature"
      },
      "fee()": {
        "notice": "Fee in bps for broadcasting an order"
      },
      "feeRecipient()": {
        "notice": "Fee recipient"
      },
      "limitOrderProtocol()": {
        "notice": "The limit order protocol this orderbook references"
      },
      "orders(bytes32)": {
        "notice": "Get a broadcasted order"
      },
      "signatures(bytes32)": {
        "notice": "Mapping from order hash to an Order's signature"
      }
    },
    "version": 1
  },
  "storageLayout": {
    "storage": [
      {
        "astId": 3608,
        "contract": "contracts/UbeswapOrderBook.sol:UbeswapOrderBook",
        "label": "signatures",
        "offset": 0,
        "slot": "0",
        "type": "t_mapping(t_bytes32,t_bytes_storage)"
      },
      {
        "astId": 3612,
        "contract": "contracts/UbeswapOrderBook.sol:UbeswapOrderBook",
        "label": "_salts",
        "offset": 0,
        "slot": "1",
        "type": "t_mapping(t_bytes32,t_uint256)"
      },
      {
        "astId": 3616,
        "contract": "contracts/UbeswapOrderBook.sol:UbeswapOrderBook",
        "label": "_makerAssets",
        "offset": 0,
        "slot": "2",
        "type": "t_mapping(t_bytes32,t_address)"
      },
      {
        "astId": 3620,
        "contract": "contracts/UbeswapOrderBook.sol:UbeswapOrderBook",
        "label": "_takerAssets",
        "offset": 0,
        "slot": "3",
        "type": "t_mapping(t_bytes32,t_address)"
      },
      {
        "astId": 3624,
        "contract": "contracts/UbeswapOrderBook.sol:UbeswapOrderBook",
        "label": "_makers",
        "offset": 0,
        "slot": "4",
        "type": "t_mapping(t_bytes32,t_address)"
      },
      {
        "astId": 3628,
        "contract": "contracts/UbeswapOrderBook.sol:UbeswapOrderBook",
        "label": "_receivers",
        "offset": 0,
        "slot": "5",
        "type": "t_mapping(t_bytes32,t_address)"
      },
      {
        "astId": 3632,
        "contract": "contracts/UbeswapOrderBook.sol:UbeswapOrderBook",
        "label": "_allowedSenders",
        "offset": 0,
        "slot": "6",
        "type": "t_mapping(t_bytes32,t_address)"
      },
      {
        "astId": 3636,
        "contract": "contracts/UbeswapOrderBook.sol:UbeswapOrderBook",
        "label": "_makingAmounts",
        "offset": 0,
        "slot": "7",
        "type": "t_mapping(t_bytes32,t_uint256)"
      },
      {
        "astId": 3640,
        "contract": "contracts/UbeswapOrderBook.sol:UbeswapOrderBook",
        "label": "_takingAmounts",
        "offset": 0,
        "slot": "8",
        "type": "t_mapping(t_bytes32,t_uint256)"
      },
      {
        "astId": 3644,
        "contract": "contracts/UbeswapOrderBook.sol:UbeswapOrderBook",
        "label": "_makerAssetDatas",
        "offset": 0,
        "slot": "9",
        "type": "t_mapping(t_bytes32,t_bytes_storage)"
      },
      {
        "astId": 3648,
        "contract": "contracts/UbeswapOrderBook.sol:UbeswapOrderBook",
        "label": "_takerAssetDatas",
        "offset": 0,
        "slot": "10",
        "type": "t_mapping(t_bytes32,t_bytes_storage)"
      },
      {
        "astId": 3652,
        "contract": "contracts/UbeswapOrderBook.sol:UbeswapOrderBook",
        "label": "_getMakerAmounts",
        "offset": 0,
        "slot": "11",
        "type": "t_mapping(t_bytes32,t_bytes_storage)"
      },
      {
        "astId": 3656,
        "contract": "contracts/UbeswapOrderBook.sol:UbeswapOrderBook",
        "label": "_getTakerAmounts",
        "offset": 0,
        "slot": "12",
        "type": "t_mapping(t_bytes32,t_bytes_storage)"
      },
      {
        "astId": 3660,
        "contract": "contracts/UbeswapOrderBook.sol:UbeswapOrderBook",
        "label": "_predicates",
        "offset": 0,
        "slot": "13",
        "type": "t_mapping(t_bytes32,t_bytes_storage)"
      },
      {
        "astId": 3664,
        "contract": "contracts/UbeswapOrderBook.sol:UbeswapOrderBook",
        "label": "_permits",
        "offset": 0,
        "slot": "14",
        "type": "t_mapping(t_bytes32,t_bytes_storage)"
      },
      {
        "astId": 3668,
        "contract": "contracts/UbeswapOrderBook.sol:UbeswapOrderBook",
        "label": "_interactions",
        "offset": 0,
        "slot": "15",
        "type": "t_mapping(t_bytes32,t_bytes_storage)"
      },
      {
        "astId": 110,
        "contract": "contracts/UbeswapOrderBook.sol:UbeswapOrderBook",
        "label": "_owner",
        "offset": 0,
        "slot": "16",
        "type": "t_address"
      },
      {
        "astId": 5451,
        "contract": "contracts/UbeswapOrderBook.sol:UbeswapOrderBook",
        "label": "fee",
        "offset": 0,
        "slot": "17",
        "type": "t_uint256"
      },
      {
        "astId": 5454,
        "contract": "contracts/UbeswapOrderBook.sol:UbeswapOrderBook",
        "label": "feeRecipient",
        "offset": 0,
        "slot": "18",
        "type": "t_address"
      }
    ],
    "types": {
      "t_address": {
        "encoding": "inplace",
        "label": "address",
        "numberOfBytes": "20"
      },
      "t_bytes32": {
        "encoding": "inplace",
        "label": "bytes32",
        "numberOfBytes": "32"
      },
      "t_bytes_storage": {
        "encoding": "bytes",
        "label": "bytes",
        "numberOfBytes": "32"
      },
      "t_mapping(t_bytes32,t_address)": {
        "encoding": "mapping",
        "key": "t_bytes32",
        "label": "mapping(bytes32 => address)",
        "numberOfBytes": "32",
        "value": "t_address"
      },
      "t_mapping(t_bytes32,t_bytes_storage)": {
        "encoding": "mapping",
        "key": "t_bytes32",
        "label": "mapping(bytes32 => bytes)",
        "numberOfBytes": "32",
        "value": "t_bytes_storage"
      },
      "t_mapping(t_bytes32,t_uint256)": {
        "encoding": "mapping",
        "key": "t_bytes32",
        "label": "mapping(bytes32 => uint256)",
        "numberOfBytes": "32",
        "value": "t_uint256"
      },
      "t_uint256": {
        "encoding": "inplace",
        "label": "uint256",
        "numberOfBytes": "32"
      }
    }
  }
}